:100000000C9462000C948A000C948A000C948A0070
:100010000C948A000C948A000C948A000C948A0038
:100020000C948A000C948A000C948A000C948A0028
:100030000C948A000C948A000C948A000C948A0018
:100040000C944B050C948A000C948A000C948A0042
:100050000C948A000C948A000C948A000C948A00F8
:100060000C9495050C948A000000000024002700E1
:100070002A0000000000250028002B0000000000DE
:1000800023002600290004040404040404040202DA
:100090000202020203030303030301020408102007
:1000A0004080010204081020010204081020000012
:1000B0000008000201000003040700000000000027
:1000C0000000B40611241FBECFEFD8E0DEBFCDBFC5
:1000D00011E0A0E0B1E0E2EDF3E102C005900D9285
:1000E000A63EB107D9F723E0A6EEB1E001C01D920C
:1000F000A633B207E1F710E0C2E6D0E004C02197D2
:10010000FE010E94E109C136D107C9F70E942C0700
:100110000C94E7090C94000096E0899FD00111240B
:10012000A654BD4F90967C936E935F9791E0919605
:100130009C939197E0912703F091280390912603D7
:10014000992339F0309751F0811108C08091D6027F
:100150000994309719F05C968C91FACF0895CF925C
:10016000DF92EF92FF920F931F9396E0899FF00129
:100170001124E654FD4F11A2278D30A12130310505
:1001800051F178F02230310509F451C023303105A6
:1001900009F452C01F910F91FF90EF90DF90CF9024
:1001A00008956623B9F361E070E00E948C002FB7D8
:1001B000F8948091AA029091AB02A091AC02B09108
:1001C000AD022FBF8093120390931303A0931403E7
:1001D000B0931503DFCF9FB7F894C090AA02D090D8
:1001E000AB02E090AC02F090AD029FBF0091120311
:1001F000109113032091140330911503C01AD10AF2
:10020000E20AF30A009124031091250330E020E074
:100210000C151D052E053F0550F462E070E01F919E
:100220000F91FF90EF90DF90CF900C948C006111B4
:10023000B1CF63E070E0F3CF70E060E0F0CF0895FD
:100240000895AF92BF92CF92DF92EF92FF920F93F9
:100250001F93CF93DF936C017B018B01040F151F5C
:10026000EB015E01AE18BF08C017D10759F06991C4
:10027000D601ED91FC910190F081E02DC601099528
:10028000892B79F7C501DF91CF911F910F91FF90D5
:10029000EF90DF90CF90BF90AF900895833081F0C2
:1002A00028F4813099F08230A9F008958730A9F0C0
:1002B0008830C9F08430B1F4809180008F7D03C014
:1002C000809180008F7780938000089584B58F7728
:1002D00084BD089584B58F7DFBCF8091B0008F776A
:1002E0008093B00008958091B0008F7DF9CFCF93B7
:1002F000DF93282F30E0F901E255FF4F8491F90197
:10030000E656FF4FD491F901EA57FF4FC491CC2331
:10031000A1F081110E944E01EC2FF0E0EE0FFF1FC3
:10032000E458FF4FA591B491EC91ED2381E090E06A
:1003300009F480E0DF91CF91089580E090E0FACF5A
:10034000862F0C9477011F93CF93DF93282F30E0F3
:10035000F901E255FF4F8491F901E656FF4FD49120
:10036000F901EA57FF4FC491CC23A9F0162F811150
:100370000E944E01EC2FF0E0EE0FFF1FEE58FF4FF2
:10038000A591B4918FB7F894EC91111108C0D09554
:10039000DE23DC938FBFDF91CF911F910895DE2B79
:1003A000F8CF862F642F0C94A301CF93DF9390E0B6
:1003B000FC01E656FF4F24918A579F4FFC01849120
:1003C0008823C9F090E0880F991FFC01E859FF4F7E
:1003D000A591B491FC01EE58FF4FC591D4916111E4
:1003E0000DC09FB7F8948C91209582238C938881BF
:1003F000282328839FBFDF91CF910895623051F465
:100400009FB7F8943C91822F809583238C93E88149
:100410002E2BEFCF8FB7F894EC912E2B2C938FBF10
:10042000EACF862F642F0C94D5013FB7F8948091C2
:10043000990290919A02A0919B02B0919C0226B5DC
:10044000A89B05C02F3F19F00196A11DB11D3FBF0C
:10045000BA2FA92F982F8827BC01CD01620F711DDB
:10046000811D911D42E0660F771F881F991F4A95D5
:10047000D1F708958F929F92AF92BF92CF92DF9261
:10048000EF92FF924B015C010E9415026B017C010F
:100490000E9415026C197D098E099F09683E734000
:1004A00081059105A8F321E0821A9108A108B108FD
:1004B00088EEC80E83E0D81EE11CF11C8114910463
:1004C000A104B10429F7FF90EF90DF90CF90BF9087
:1004D000AF909F908F90089520914E02260F332762
:1004E000331F21323105ECF420917202FC0190E0BF
:1004F00080E0243069F082E00895A0914E022191BD
:10050000AC01425D5D4FA40FB52FB11D2C93019638
:10051000861798F380914E02680F60934E0280E038
:10052000089581E008951092720281E08093740230
:100530001092730261E082E10E94A30161E083E115
:100540000E94A301E9EBF0E080818E7F80838081AF
:100550008D7F808388E48093B80085E48093BC001D
:100560000895CF93DF9391E090932D028823B9F003
:10057000C091B800D091BA008091BC008A7B809372
:10058000BC0060E082E10E94A30160E083E10E9480
:10059000A3010E949302D093BA00C093B800DF91E8
:1005A000CF9108950895E091A4028091A302E817E5
:1005B00030F4F0E0E85FFD4F808190E008958FEF28
:1005C0009FEF08959091A4028091A3022FEF3FEF37
:1005D000981748F4E92FF0E0E85FFD4F208130E004
:1005E0009F5F9093A402C90108958091A302909106
:1005F000A402891B990B0895CF92DF92EF92FF928C
:100600000F931F93CF93DF937C01CB018A0120913D
:100610000702222389F0EB016B01C40ED51ECC1515
:10062000DD0569F06991D701ED91FC910190F081B0
:10063000E02DC7010995F3CF642F0E946C02C80119
:10064000DF91CF911F910F91FF90EF90DF90CF90AE
:100650000895CF93DF931F92CDB7DEB769832091C2
:1006600007022223F9F02091A102203258F021E064
:1006700030E0FC013383228390E080E00F90DF9133
:10068000CF9108958091A202E82FF0E0E951FE4F4A
:10069000998190838F5F8093A2028093A10281E071
:1006A00090E0ECCF61E0CE0101960E946C02F7CFA2
:1006B000CF92DF92EF92FF920F931F93CF93DF932E
:1006C000FC01C48121E020930702C093E60110924F
:1006D000A2021092A1028485682B8EEA92E00E9409
:1006E0002903D091A102D13208F092C00E941502D4
:1006F0006B017C0180917202811165C082E0809360
:10070000720281E0809374028FEF809371021092E5
:100710009602D0939502A7EEB1E0E5E7F2E080E023
:10072000D81385C01092970280919702CC0FC82BE6
:10073000C093970280917302813009F07CC01092BF
:1007400073020E9415026B017C01809197028093D5
:10075000BB008091290290912A02A0912B02B091B6
:100760002C02892B8A2B8B2B99F00E941502009169
:10077000290210912A0220912B0230912C026C192F
:100780007D098E099F090617170728073907E0F129
:100790008091BC0083FDD9CF85EC8093BC000E9482
:1007A00015026B017C0180917202823009F445C010
:1007B000809171028F3F61F180917102803241F12D
:1007C0008091710225C08091290290912A02A09106
:1007D0002B02B0912C02892B8A2B8B2B09F48ACF08
:1007E0000E9415020091290210912A0220912B02E9
:1007F00030912C026C197D098E099F090617170785
:100800002807390708F076CF809128020E94B102AC
:100810001092A2021092A10210920702DF91CF91D2
:100820001F910F91FF90EF90DF90CF9008959D91D1
:1008300091938F5F75CF85EEB0CF80912902909113
:100840002A02A0912B02B0912C02892B8A2B8B2B90
:1008500009F4A9CF0E9415020091290210912A02E1
:1008600020912B0230912C026C197D098E099F0971
:10087000061717072807390708F095CFC5CF089541
:1008800090E080E00895FC0101900020E9F73197A5
:10089000AF01481B590BBC0189E293E00C94210184
:1008A00085ED8093BC008091290290912A02A0914D
:1008B0002B02B0912C020796A11DB11D23E0B69525
:1008C000A795979587952A95D1F72091BC0024FD8F
:1008D00003C01092720208954091290250912A0299
:1008E00060912B0270912C02452B462B472B69F30C
:1008F0000097A105B10541F025E32A95F1F7000025
:100900000197A109B109E1CF809128020C94B102AD
:100910000F931F93CF938C01C62F0E9458036C2F07
:100920006460C8010E9458036C2F6B7FC8010E944D
:10093000580383EC90E00197F1F7CF911F910F914D
:1009400008950F931F93CF93DF938C01D62FC42F5D
:10095000607F642B0E94880480E1D89FB00111243D
:100960006C2BC801DF91CF911F910F910C948804DB
:10097000CF93DF93CDB7DEB728970FB6F894DEBFDD
:100980000FBECDBF98E0E8E1F1E0DE0111960190E5
:100990000D929A95E1F790913103981710F48FEF2B
:1009A000890F90E0880F991F21E030E02C0F3D1F48
:1009B000820F931FFC016081606840E089E293E050
:1009C00028960FB6F894DEBF0FBECDBFDF91CF9152
:1009D0000C94A10440E061E089E293E00E94A1044C
:1009E0008BE39FE10197F1F780913203882319F09F
:1009F00080E00C94B804089541E00E94A10481E0D5
:100A000090E008950E94EA0481E00E94B80488E41E
:100A100091E00E9443046CED75E080E090E00E945C
:100A20003A0281E00E94B80484E591E00E94430408
:100A300081E00E94B8041092A90261E08BE00E945C
:100A4000A30160E08AE00E94A30160E08CE00E94C4
:100A5000A3010E94EA0484E791E00E94430481E03C
:100A60000E94B8048DE791E00E94430482E00E9456
:100A7000B80488E891E00E94430483E00E94B8042F
:100A8000E9E2F3E06681862F826086836A6040E057
:100A9000CF010C94A1041F920F920FB60F92112454
:100AA0002F933F938F939F93AF93BF938091AA020D
:100AB0009091AB02A091AC02B091AD02309198023E
:100AC00023E0230F2D3758F50196A11DB11D20936A
:100AD00098028093AA029093AB02A093AC02B093C9
:100AE000AD028091990290919A02A0919B02B091DF
:100AF0009C020196A11DB11D8093990290939A02C8
:100B0000A0939B02B0939C02BF91AF919F918F9154
:100B10003F912F910F900FBE0F901F90189526E8D0
:100B2000230F0296A11DB11DD2CF1F920F920FB6B7
:100B30000F9211242F933F934F935F936F937F9363
:100B40008F939F93AF93BF93EF93FF938091B900DF
:100B5000887F803609F44AC0F0F5883209F4A7C0CE
:100B600018F5803109F49BC0B8F4882309F4F9C062
:100B7000883009F494C0FF91EF91BF91AF919F919C
:100B80008F917F916F915F914F913F912F910F9036
:100B90000FBE0F901F901895883109F488C08032DD
:100BA00051F78093710214C0803409F49DC040F461
:100BB0008033B9F38833F9F68093710285ECB0C0C5
:100BC000803509F485C0883509F496C0883499F6D3
:100BD0000E945004D0CF883909F48CC038F588378A
:100BE00029F050F4883611F0803729F683E080939D
:100BF00072021092700257C0883809F47BC08039A5
:100C000019F0803809F0B7CF80917002803208F077
:100C100071C0E091700281E08E0F8093700280912C
:100C2000BB00F0E0E05BFD4F80833DC0803B39F0CE
:100C3000E0F4803A09F479C0883A09F09CCF84E066
:100C40008093720210924F0210924E02E0919F0226
:100C5000F091A002099580914E0281110FC081E0B0
:100C600080934E0210922E0209C0803C09F4A6CF58
:100C7000883C09F4A3CF883B09F07DCFE0914F0277
:100C800081E08E0F80934F02F0E0E25DFD4F8081A6
:100C90008093BB0090914F0280914E0229C08091B9
:100CA00097028093BB0085EC8093BC0064CF909149
:100CB000960280919502981758F5E091960281E08E
:100CC0008E0F80939602F0E0EB58FD4F8081E9CFC4
:100CD000E091960281E08E0F809396028091BB0096
:100CE000F0E0EB58FD4F8083909196028091950241
:100CF0009817C8F285E8D8CFE091960281E08E0F70
:100D0000809396028091BB00F0E0EB58FD4F80830A
:100D10008091740281115CCF81E08093730284EA38
:100D20008093BC001092720226CF85EC8093BC00A9
:100D30001092720280917002803230F4E091700261
:100D4000F0E0E05BFD4F10826091700270E0E09196
:100D50009D02F0919E0280E592E00995109270024A
:100D60000ACF1092710234CF1092B1021092B002E9
:100D700088EE93E0A0E0B0E08093B2029093B302DB
:100D8000A093B402B093B50284E291E09093AF02D5
:100D90008093AE0210922C0310922B0380E491E01A
:100DA00090932A03809329031092320387E2809361
:100DB0002D0384E18093330384E080933403109205
:100DC00035031092BC021092C0021092BF02109222
:100DD000C10286E391E09093BB028093BA02E6EDF4
:100DE000F2E01082148213821582369683E0E2319B
:100DF000F807B9F784E091E090931D0380931C03FA
:100E000080E091E090931F0380931E0384E0809321
:100E100020038093210388E091E090931B0380934B
:100E20001A038AE090E0909323038093220384EFD7
:100E300091E090932503809324031092280310924D
:100E400027031092160310921703109218031092A2
:100E50001903109226030895789484B5826084BDA6
:100E600084B5816084BD85B5826085BD85B58160AE
:100E700085BD80916E00816080936E00109281002C
:100E800080918100826080938100809181008160E7
:100E900080938100809180008160809380008091A8
:100EA000B10084608093B1008091B0008160809334
:100EB000B00080917A00846080937A0080917A00FB
:100EC000826080937A0080917A00816080937A00BA
:100ED00080917A00806880937A001092C10061E06E
:100EE0008AE00E94D50161E08BE00E94D50161E0BB
:100EF0008CE00E94D5011092A4021092A3021092DD
:100F0000A2021092A1020E9493028FE191E09093BD
:100F1000A00280939F0280E291E090939E028093D2
:100F20009D0210922E0380913403823018F098E0D5
:100F300090932E038093310362E370E080E090E0B1
:100F40000E943A026091350389E293E00E945803BF
:100F500068EE73E080E090E00E943A0260E389E28C
:100F600093E00E948804CBE4D6E4CE010197F1F728
:100F700060E389E293E00E9488042197F1F760E33F
:100F800089E293E00E94880483E592E00197F1F7FB
:100F900060E289E293E00E94880460912E0360621F
:100FA00040E089E293E00E94A10484E080932F0353
:100FB00040E06CE089E293E00E94A1040E94EA0410
:100FC00082E08093300340E066E089E293E00E9493
:100FD000A10440E062E089E293E00E94A1048BE377
:100FE0009FE10197F1F788E08093350360E089E2A3
:100FF00093E00E94580384E791E00E94430481E05B
:101000000E94B8048DE791E00E94430482E00E94B0
:10101000B80488E891E00E94430483E00E94B80489
:1010200060912F03862F826080932F036A6040E0D7
:1010300089E293E00E94A10461E08BE00E94A30199
:1010400060E08AE00E94A30160E08CE00E94A301BE
:10105000412C512C3201439488248A94982C50E0DE
:10106000C52E50E0D52E51E0509326038FB7F8944B
:101070004091AA025091AB026091AC027091AD0216
:101080008FBF8091160390911703A0911803B09120
:101090001903481B590B6A0B7B0B8091220390911B
:1010A0002303B0E0A0E084179507A607B70708F070
:1010B00014C1C0E080912003C81760F4E0911C03C4
:1010C000F0911D03EC0FF11D62E080810E94D501BB
:1010D000CF5FF0CF312C80912103381608F05FC02C
:1010E000032D10E0E0911E03F0911F03E00FF11FAC
:1010F00061E080810E94D501E0911E03F0911F0301
:10110000E00FF11F60E080810E94A301D301C201C2
:10111000032C04C0880F991FAA1FBB1F0A94D2F783
:101120005C017C01E094F094212C8091200328162E
:10113000F8F4C22DD0E0E0911C03F0911D03EC0FF8
:10114000FD1F80810E9477012496CC0FDD1FC654BD
:10115000DD4F892B41F4888199818A299B299983C4
:1011600088832394E2CF888199818E219F21F7CFB4
:10117000E0911E03F0911F03E00FF11F61E08081F9
:101180000E94A30180911E0390911F03080F191F55
:1011900060E0F80180810E94D50133949CCF0AEB76
:1011A00012E0E8018F8D98A1892B21F41C8E9E8E70
:1011B0008D8E19A2269686EF92E08C179D0791F7E7
:1011C000B12C80912003B81608F053C0A12CEB2C51
:1011D000F12CEE0CFF1CF701EE53FD4F7F01209127
:1011E0002103A21608F043C0F701608171810A2C27
:1011F00002C0769567950A94E2F7B29E9001112499
:101200002A0D311DEAEBF2E080E0458D568D241762
:10121000350709F4D4C08F5F36968A30B1F760FF86
:1012200024C0EAEBF2E090E080E0448D411118C068
:10123000E0911A03F0911B03E20FF31F408156E087
:10124000589FF001599FF00D1124E654FD4F448F33
:10125000368F258F10A2178E61E00E94AF0005C067
:10126000019636968A30910501F7A394B8CFB394CE
:10127000A8CF80E0F80191A19111892F0A5F1F4F3B
:101280000C171D07B9F79FB7F8944091AA02509127
:10129000AB026091AC027091AD029FBF4093160308
:1012A0005093170360931803709319038823A9F0D0
:1012B0008091DB02882389F08091D9029091DA0233
:1012C000019759F4C091D602C1110AC0C114D104CA
:1012D00009F4C9CE0E940000C6CE10922603F6CFB4
:1012E000D091A902D430ACF4CD33D1F0C33499F00D
:1012F00041E06AE289E293E00E94A104ED2F0D2E05
:10130000000CFF0BEB55FD4FC083DF5FD093A902AC
:10131000DDCFC33419F40E940205D8CFCD33B1F626
:101320008091A5028133E9F58091A6028233C9F547
:101330008091A7028333A9F58091A802843389F5AF
:1013400060E08BE00E94A30161E08AE00E94A301BB
:1013500061E08CE00E94A3010E94EA0480E00E9408
:10136000B80483E991E00E94430481E00E94B8043C
:1013700087EA91E00E94430482E00E94B80486EB71
:1013800091E00E94430483E00E94B8048FEB91E057
:101390000E94430460EA7FE080E090E00E943A020D
:1013A000BACF0E94EA0481E00E94B80482ED91E085
:1013B0000E9443046CED75E080E090E0EFCF617037
:1013C0004CCFEE0FFF1F0590F491E02D0994F89497
:0213D000FFCF4D
:1013D20007060504030201003738392F3435362A4F
:1013E2003132332D43303D2B0000400014005400B5
:1013F200000000002903FC024004D202F502E202CE
:10140200D302000000001102D101A001000000007F
:10141200FC04210140043F043D2043455252414413
:1014220041203D00C2A0C2A0C2A0C2A0C2A0C2A0D0
:10143200C2A0C2A0C2A0C2A0C2A0C2A0C2A0C2A09A
:10144200C2A0200045717569706F203100696E6716
:1014520072657365206C6100636F6E74726173658F
:101462006E6100636F6E74726173656E6120636F8B
:101472007272656374610070756572746120616275
:1014820069657274610065717569706F2031006DF4
:101492006172746861206A75616E2065206973618A
:1014A2006900636F6E74726173656E6120496E7656
:0614B200616C6964610039
:00000001FF
