:100000000C941D010C9414130C94EC120C944501E7
:100010000C9445010C9445010C9445010C94450148
:100020000C9445010C9445010C9445010C94450138
:100030000C9445010C9445010C9445010C94450128
:100040000C9483110C9445010C9451110C942B11B8
:100050000C9445010C9445010C9445010C94450108
:100060000C94CD110C94450153616C766170616EF6
:1000700074616C6C617300526567726573617200C4
:1000800069722061206C61206C616D706172610029
:10009000697220616C20636F6E7461646F720069B5
:1000A000722061206C61207261697A004174616A1A
:1000B0006F73005265677265736172005061727090
:1000C0006164656F005265677265736172004170AB
:1000D00061676172204C656400456E63656E64659E
:1000E00072204C4544004C616D70617261004C455A
:1000F0004400436F6E7461646F7220313020736509
:100100006700496E666F726D6163696F6E00020110
:10011000F200EE00E600D900CE00C500BC00B3003E
:10012000AC009F0090008000770068007465636CED
:10013000610050726573696F6E65206375616C71E3
:10014000756965720045717569706F2030310041C5
:10015000706C69636163696F6E206465206D656EA4
:100160007500202000313020736567207061726156
:100170002073616C697200646520706172706164E3
:10018000656F730073656C65636369696F6E652085
:1001900063616E7469646164007061726120656E90
:1001A00074726172206D656E75006375616C717536
:1001B000696572207465636C610068756D65646162
:1001C000643A0074656D70657261747572613A00AD
:1001D00000000000240027002A0000000000250085
:1001E00028002B00000000080002010000030407A3
:1001F00000000000000000004C43444D4C322076CB
:10020000322E322E360001020408102040800102F6
:100210000408102001020408102000000000230040
:100220002600290004040404040404040202020257
:100230000202030303030303671311241FBECFEF5E
:10024000D8E0DEBFCDBF11E0A0E0B1E0E6E0F7E32B
:1002500002C005900D92A43AB107D9F724E0A4EAB0
:10026000B1E001C01D92A535B207E1F711E0CDE183
:10027000D1E004C02197FE010E94761BCC31D1074A
:10028000C9F70E94FA140C94811B0C940000809111
:100290001A049091FB039F3F39F080FF08C08460EF
:1002A00080931A0481E008958E7F80931A0480E081
:1002B000089580911A049091FB039F3F19F0809557
:1002C000817008958E7F80931A0480E00895809154
:1002D0001A049091FB039F3F71F081FD0FC0826073
:1002E00080931A04E091ED03F091EE0309951092CA
:1002F000190481E008958D7F80931A0480E00895A9
:100300001092FA031092F9038091FB038F3F11F0D2
:100310008093FD038FEF8093FB031092FC034FEF5C
:100320005FEFBA014093000450930104609302040C
:10033000709303048093040480930504809306045F
:1003400080930704809308048093090480930A042F
:1003500080930B0408958091FB038F3F79F0809187
:100360000E04E091F903F091FA0381110994809150
:100370000D048111FBCF8091FC03F8CF08950895FF
:1003800081E0089508950895EF92FF920F931F93CF
:10039000CF93DF938C017B01D0E0C0E0F701EC0F3D
:1003A000FD1F6491662361F0D801ED91FC910190ED
:1003B000F081E02DC8010995892B11F02196EECF2F
:1003C000CE01DF91CF911F910F91FF90EF90089593
:1003D000AF92BF92CF92DF92EF92FF920F931F9353
:1003E000CF93DF936C017B018B01040F151FEB0191
:1003F0005E01AE18BF08C017D10759F06991D60148
:10040000ED91FC910190F081E02DC6010995892BB9
:1004100079F7C501DF91CF911F910F91FF90EF9078
:10042000DF90CF90BF90AF900895FC01538D448D25
:10043000252F30E0842F90E0821B930B541710F08F
:10044000CF96089501970895FC01918D828D98179C
:1004500061F0A28DAE0FBF2FB11D5D968C91928D74
:100460009F5F9F73928F90E008958FEF9FEF0895A5
:10047000FC01918D828D981731F0828DE80FF11D6E
:10048000858D90E008958FEF9FEF0895FC01918D89
:10049000228D892F90E0805C9F4F821B91098F7382
:1004A0009927089587E692E00E94460221E0892B71
:1004B00009F420E0822F089580E090E0892B29F054
:1004C0000E94520281110C9400000895FC01A48D39
:1004D000A80FB92FB11DA35ABF4F2C91848D90E066
:1004E00001968F739927848FA689B7892C93A08949
:1004F000B1898C91837080648C93938D848D9813D3
:1005000006C00288F389E02D80818F7D8083089565
:10051000EF92FF920F931F93CF93DF93EC0181E053
:10052000888F9B8D8C8D98131AC0E889F9898081FA
:1005300085FF15C09FB7F894EE89FF896083E8892D
:10054000F98980818370806480839FBF81E090E01F
:10055000DF91CF911F910F91FF90EF900895F62EAC
:100560000B8D10E00F5F1F4F0F731127E02E8C8D46
:100570008E110CC00FB607FCFACFE889F98980818B
:1005800085FFF5CFCE010E946602F1CFEB8DEC0F17
:10059000FD2FF11DE35AFF4FF0829FB7F8940B8FA8
:1005A000EA89FB8980818062CFCFCF93DF93EC0112
:1005B000888D8823B9F0AA89BB89E889F9898C914B
:1005C00085FD03C0808186FD0DC00FB607FCF7CF07
:1005D0008C9185FFF2CF808185FFEDCFCE010E9407
:1005E0006602E9CFDF91CF910895833081F028F43E
:1005F000813099F08230A9F008958730A9F08830D1
:10060000C9F08430B1F4809180008F7D03C0809167
:1006100080008F7780938000089584B58F7784BDA4
:10062000089584B58F7DFBCF8091B0008F77809344
:10063000B00008958091B0008F7DF9CF1F93CF93C4
:10064000DF93282F30E0F901EC51FE4F8491F9013E
:10065000EA5FFD4FD491F901EC5DFD4FC491CC23CD
:10066000A9F0162F81110E94F502EC2FF0E0EE0F99
:10067000FF1FE652FE4FA591B4918FB7F894EC910D
:10068000111108C0D095DE23DC938FBFDF91CF918D
:100690001F910895DE2BF8CFCF93DF9390E0FC01FC
:1006A000EA5FFD4F24918C5D9D4FFC01849188236E
:1006B000C9F090E0880F991FFC01E053FE4FA5910F
:1006C000B491FC01E652FE4FC591D49161110DC069
:1006D0009FB7F8948C91209582238C93888128234E
:1006E00028839FBFDF91CF910895623051F49FB767
:1006F000F8943C91822F809583238C93E8812E2B54
:10070000EFCF8FB7F894EC912E2B2C938FBFEACFBD
:100710003FB7F8948091580290915902A0915A02E3
:10072000B0915B0226B5A89B05C02F3F19F001963A
:10073000A11DB11D3FBFBA2FA92F982F8827BC013B
:10074000CD01620F711D811D911D42E0660F771F63
:10075000881F991F4A95D1F708958F929F92AF9263
:10076000BF92CF92DF92EF92FF924B015C010E9409
:1007700088036B017C010E9488036C197D098E0936
:100780009F09683E734081059105A8F321E0821A14
:100790009108A108B10888EEC80E83E0D81EE11CBC
:1007A000F11C81149104A104B10429F7FF90EF908A
:1007B000DF90CF90BF90AF909F908F9008952FB70C
:1007C000F894609154027091550280915602909174
:1007D00057022FBF0895CF92DF92EF92FF920F93AF
:1007E0001F93CF93DF93EC016A017B010E94DF032B
:1007F000088119812A813B81601B710B820B930B4D
:100800006C157D058E059F0580F00E94DF036883CF
:1008100079838A839B8381E0DF91CF911F910F9130
:10082000FF90EF90DF90CF90089580E0F5CF6623A2
:1008300039F0FC0184819581009711F06150F7CF68
:100840000895FC0182819381009711F00C941704A4
:1008500090E080E00895CF9390911B0496FD1EC018
:100860002091FB032817D1F0C82F9F7790649093B5
:100870001B042093FD0390911A042F3F89F080916F
:100880000D0480930E049F7790931A04C0930C0478
:1008900010920D041092100410920F04CF9108953D
:1008A00010920E04906890931A048091FE03809336
:1008B000FF03609116048091E7039091E8030E9482
:1008C0002104FC0182858093FE03E0CFCF93DF9368
:1008D000D82F80911A0484FF0DC08F7E80931A0454
:1008E0008091FD038F3F31F090911104981710F023
:1008F0000E942B0480911A04C091FB0383FF25C042
:10090000877F80931A042091FF032F3FF1F090918D
:1009100011049217D0F090911B0496FD16C0906CB4
:1009200090931B0420930C04C093FD038068CF3F79
:10093000C1F090910D0490930E0480931A041092CC
:100940000D041092100410920F04CF3F39F0D09391
:10095000250480911A04816080931A04DF91CF915D
:10096000089510920E0480931A048091FE038093E0
:10097000FF03609116048091E7039091E8030E94C1
:100980002104FC0182858093FE03D9CFCF93C091CF
:1009900014046C2F8091E7039091E8030E942104D6
:1009A000009731F0FC01248527FF04C0C093140494
:1009B000CF910895CF5F61E00E941704F1CFEF92CD
:1009C000FF920F931F93CF93DF93F82E882339F173
:1009D00021E0821709F4B0C08091160490911204AE
:1009E000292F2150330BA901282F30E0241B350B70
:1009F000121613062CF020911304222309F46EC062
:100A0000FF2009F4CAC031E0F31268C02091150438
:100A10002417150609F062C08F5F891BC8C0D091EA
:100A2000160400E010E0C0E0DD2309F480C060E0BF
:100A30008091E7039091E8030E942104009709F454
:100A400072C0E090140400E010E0C0E0E1125DC06C
:100A5000CC2309F46CC0D150D09316040093140435
:100A6000D0E08091180481FF2CC0DD2351F160E0BB
:100A70008091E7039091E8030E942104009709F117
:100A8000FC01248527FF02C0CF5F012F1F5F61E0BB
:100A90000E9417040097A1F7C150C0931604009359
:100AA0001404209112048C2F90E0622F6150770B78
:100AB000861B970B18161906E4F5C21BCF5FC0936F
:100AC0001304809119048D7F8093190480911C0474
:100AD000806280931C04DD2309F47ECF809116048C
:100AE00090911304891B809315048091FB038F3F21
:100AF00029F480911C04806480931C04DF91CF91C1
:100B00001F910F91FF90EF900895FC01248527FF1E
:100B100002C0CF5F012F1F5F61E00E9417040097A2
:100B200009F094CF9DCF00E010E0C0E099CFD1E074
:100B300098CF10921304C5CFC09114046C2F8091EC
:100B4000E7039091E8030E942104009721F161E0FE
:100B50000E9417040097F9F0CF5FFC01248527FF5E
:100B6000F6CF809116048F5F80931604C09314040F
:100B7000D0E08091180481FF0AC0DD2341F010927B
:100B8000140410921604109213040E94C60480915B
:100B900019048B7F99CFD1E0ECCF8091150481119E
:100BA0009DCF80911304882309F498CF81508093BE
:100BB000130494CF8091FB038F3F31F080911B048D
:100BC000846080931B04089510921904E091E70358
:100BD000F091E80382858F3FD1F4F093E803E0932E
:100BE000E703109217041092150410921404109247
:100BF0001604109213040E94C6048AE00E94DF04C7
:100C000080911C04806280931C040895FC0122855D
:100C10002F3F19F3808191810097C1F7F9CF0E948E
:100C2000670181110C94DA0508958AE00E94DF04BF
:100C3000E7EEF3E085A9806285AB0895CF93DF935B
:100C4000EC01892B31F190911B0496FD22C040915B
:100C5000F9035091FA03C417D507D9F09F77906430
:100C600090931B048091FB038093FD0390911A04E1
:100C70008F3F91F080910D0480930E049F779093A5
:100C80001A0410920C0410920D04D0931004C09317
:100C90000F04DF91CF91089510920E049068909305
:100CA0001A048091FE038093FF03609116048091E3
:100CB000E7039091E8030E942104FC018285809360
:100CC000FE03DFCFEF92FF920F93CF93DF93E0917C
:100CD000E903F091EA03309709F0099580911B042C
:100CE00086FD91C080FD3BC08091EF039091F003A1
:100CF0000097A9F12091FB032F3F19F12091F903EF
:100D00003091FA038217930751F140912E045091CC
:100D10002F0460913004709131048AE294E00E94C3
:100D2000EB038823E1F080E00E9466040E946206E3
:100D3000109219048091EF039091F0030E941E0617
:100D40000EC040912E0450912F0460913004709198
:100D500031048AE294E00E94EB038111E9CF2091F3
:100D60001D0430911E0440911F0450912004609195
:100D70002104709122048091230490912404A0E026
:100D80000E946A1B09F43FC087EEE82E83E0F82E2C
:100D9000D0E0C0E020911D0430911E0440911F045A
:100DA00050912004609121047091220480912304C9
:100DB000909124040C2F0E944F1B217030E040E0E2
:100DC00050E060E070E080E090E0A0E00E946A1BEC
:100DD00099F0F70182859385009771F02091FB03CC
:100DE0002F3F19F40E941E0607C02091F90330918D
:100DF000FA0382179307B1F72196F2E0EF0EF11C88
:100E0000C430D10539F6DF91CF910F91FF90EF906B
:100E100008951F93CF93DF938091E7039091E803A8
:100E2000FC011285208131812115310509F0C901AC
:100E30009093E8038093E70320911704222319F08D
:100E4000215020931704109214041092160460E0AD
:100E50000E942104009769F1D0E0C0E0FC012485E4
:100E600027FF21C0228512131DC0C0931604D09302
:100E70001404209112048C2F90E0622F6150770BA4
:100E8000861B970B1816190654F4C21BCF5FC0932C
:100E900013048AE0DF91CF911F910C94DF0410922C
:100EA0001304F7CFCF5FDF5F61E00E941704009764
:100EB000A9F6DF91CF911F910C94DA05CF9360E0F2
:100EC0000E942104C0E0009741F0FC01248527FD29
:100ED000CF5F61E00E941704F6CF8C2FCF91089569
:100EE0008091E7039091E803009711F00C945E075E
:100EF00080E00895FF920F931F93CF93DF930091AB
:100F0000E7031091E803F09014046F2DC8010E94CC
:100F10002104EC0160E00E9421042C850097F1F48B
:100F200020FF1CC08E819F819093FA038093F90368
:100F30006F2DC8010E942104FC0182858093FB0370
:100F40006F2DC8010E942104FC0183858093FC035E
:100F5000DF91CF911F910F91FF90089521FF07C05E
:100F6000DF91CF911F910F91FF900C941506892B63
:100F700079F3209769F3CE010E945E07882341F33D
:100F8000D093E803C093E703109213041092140463
:100F9000109216040E94C604809117048F5F8093FC
:100FA000170410921904DCCFDC011296ED91FC912C
:100FB0001397309769F0248135812115310531F47B
:100FC00075836483FB01918380830895F901F3CFD6
:100FD00013967C936E931297F5CF089585ED8093C9
:100FE000BC008091BC0084FDFCCF10926202089589
:100FF0002091EA01260F3327331F21323105ECF40B
:1010000020916202FC0190E080E0243069F082E0EF
:101010000895A091EA012191AC0146535E4FA40FBF
:10102000B52FB11D2C930196861798F38091EA0194
:10103000680F6093EA0180E0089581E008950895C3
:10104000E091660280916502E81730F4F0E0E65521
:10105000FE4F808190E008958FEF9FEF089590916B
:101060006602809165022FEF3FEF981748F4E92F51
:10107000F0E0E655FE4F208130E09F5F90936602DE
:10108000C90108958091650290916602891B990BB0
:101090000895CF92DF92EF92FF920F931F93CF9319
:1010A000DF937C01CB018A0120913102222389F058
:1010B000EB016B01C40ED51ECC15DD0569F06991FD
:1010C000D701ED91FC910190F081E02DC7010995C8
:1010D000F3CF642F0E94F807C801DF91CF911F91D1
:1010E0000F91FF90EF90DF90CF900895CF93DF9313
:1010F0001F92CDB7DEB76983209131022223F9F028
:1011000020916302203258F021E030E0FC0133836B
:10111000228390E080E00F90DF91CF91089580913D
:101120006402E82FF0E0EE5CFD4F998190838F5FC1
:10113000809364028093630281E090E0ECCF61E0F1
:10114000CE0101960E94F807F7CFCF93FC01C4812E
:1011500021E020933102C093520210926402109257
:1011600063028385682B84E093E00E947608909167
:101170006302913208F03FC0809162028111FCCF7E
:1011800082E08093620281E0809361028FEF80931E
:10119000300210922F0290932E02A2E3B2E0EEE012
:1011A000F2E080E098132FC010920D0280910D02A2
:1011B000CC0FC82BC0930D0280916002813039F5AD
:1011C0001092600280910D028093BB008091BC0060
:1011D00083FDF8CF85EC8093BC0080916202823061
:1011E000E1F3809130028F3F31F080913002803204
:1011F00011F08091300210926402109263021092FA
:101200003102CF9108952D9121938F5FCBCF85EE41
:10121000E2CF90E080E008956F927F928F929F924C
:10122000AF92BF92CF92DF92EF92FF920F931F93F4
:10123000CF93DF93CDB7DEB7AC970FB6F894DEBF90
:101240000FBECDBFDC011696ED91FC91319609F4ED
:1012500080C059013A016B018C01FE0131964F01AA
:1012600088E2DF011D928A95E9F7D801ED91FC91A2
:101270000484F585E02DB401C80109957C01892B12
:1012800009F051C01AA619A61CA61BA6D801ED91FB
:10129000FC910684F785E02D9E01255D3F4FAE0150
:1012A000475D5F4FB401C80109957C01892BD9F5D1
:1012B000A114B10439F088E2F401D50101900D9236
:1012C0008A95E1F709A51AA5C114D10479F0612F17
:1012D000772767FD7A95072E000C880B990B0E94E3
:1012E000261AF601608371838283938361147104EB
:1012F00089F08CA5682F782F770F770B072E000CBD
:10130000880B990B0E94261AD3016D937D938D93C0
:101310009C931397012B39F48BA59CA5892B19F469
:1013200096E1E92EF12CC701AC960FB6F894DEBF1A
:101330000FBECDBFDF91CF911F910F91FF90EF9026
:10134000DF90CF90BF90AF909F908F907F906F90E5
:10135000089587E1E82EF12CE6CF8F929F92AF920D
:10136000BF92CF92DF92EF92FF920F931F93CF9392
:10137000DF93EC018B016A017901E881F981028434
:10138000F385E02D0995B82EB801685F7F4FE8819D
:10139000F9810284F385E02DCE010995982EB801DC
:1013A000605F7F4FE881F9810284F385E02DCE01F3
:1013B0000995A82EB801685E7F4FE881F981028403
:1013C000F385E02DCE010995882EB801605E7F4F30
:1013D000E881F9810284F385E02DCE0109959B2DEA
:1013E000990D9A0D980D891319C09A2D882DF60123
:1013F000918380839B2D892DF7019183808390E0D9
:1014000080E0DF91CF911F910F91FF90EF90DF90DF
:10141000CF90BF90AF909F908F90089585E190E01E
:10142000F0CF47E050E080E0FB012191BF01042EA6
:1014300001C0220F0A94EAF7820F41505109A0F728
:1014400008953F924F925F926F927F928F929F92F8
:10145000AF92BF92CF92DF92EF92FF920F931F93C2
:10146000CF93DF93EC01162F7A0169010E94880364
:101470004B015C01312C111138843601660C771C4C
:10148000660C771C85E0681A71082701440C551C0E
:10149000440C551C85E0481A510810E000E060E05B
:1014A00070E0CB012A813B814C815D812617370793
:1014B000480759070CF10115110599F582E0E81666
:1014C000F1041CF0C2010197F1F70E94880368192A
:1014D00079098A099B09E985F0E0EE0FFF1FE65EB6
:1014E000FD4FA591B4912C910F5F1F4F3885232399
:1014F000231105C097FFD6CF6FEF7FEFCB01DF91B0
:10150000CF911F910F91FF90EF90DF90CF90BF9000
:10151000AF909F908F907F906F905F904F903F9093
:10152000089582E0C816D10484F2C301CCCFDC0157
:1015300017967C936E931697FB01EA5FFD4FE4913B
:101540001896EC9318976C5D7D4FFB01649119968A
:101550006C930895CF92DF92EF92FF920F931F93B7
:10156000CF93DF93EC017A0169010E94970AE88129
:10157000F9810480F581E02D9801A601B701CE0123
:10158000DF91CF911F910F91FF90EF90DF90CF905F
:101590000994CF92DF92EF92FF920F931F93CF9314
:1015A000DF93EC017A0169010E94970AE881F981D1
:1015B0000190F081E02D9801A601B701CE01DF91E5
:1015C000CF911F910F91FF90EF90DF90CF900994F2
:1015D000CF92DF92EF92FF920F931F93CF93DF93FF
:1015E000CDB7DEB728970FB6F894DEBF0FBECDBFDC
:1015F000DC011696ED91FC91319609F440C08A0108
:101600007B0119821A821B821C821D821E821F820C
:101610001886DC01ED91FC910480F581E02DAE018E
:101620004B5F5F4FBE016F5F7F4F09956C01892B48
:10163000B1F4E114F10441F069817A818B819C81DC
:101640000E94EE19F70160830115110541F06D81CB
:101650007E818F8198850E94EE19D8016C93C60116
:1016600028960FB6F894DEBF0FBECDBFDF91CF91A5
:101670001F910F91FF90EF90DF90CF90089587E139
:10168000C82ED12CECCF0E946701882339F08091BD
:101690001104843018F084E00C942B0408950E9407
:1016A0006701882321F081E49EE00C941E060895D2
:1016B0000E946701882319F081E00C946604089564
:1016C000DC01ED91FD918081ED91FD919081ED9195
:1016D000FD916C9163708E2309F064609F2309F083
:1016E0006860EDE7FBE0E60FF11D659565956D938C
:1016F0006D917D918D919D91099423C01AC012C066
:1017000016C010C01EC009C014C013C006C019C046
:1017100009C00DC007C00DC014C0625070408040A9
:1017200090400BC0615070408040904006C06E5F9A
:1017300001C06F5F7F4F8F4F9F4F9E938E937E931D
:101740006E9308950F931F93CF938C01C62F0E9421
:10175000A5086C2F6460C8010E94A5086C2F6B7FE0
:10176000C8010E94A50883EC90E00197F1F7CF91A2
:101770001F910F9108950F931F93CF93DF938C01C7
:10178000D62FC42F607F642B0E94A20B80E1D89FCC
:10179000B00111246C2BC801DF91CF911F910F91E3
:1017A0000C94A20BCF93DF93CDB7DEB728970FB67B
:1017B000F894DEBF0FBECDBF98E0E1E0F1E0DE01BE
:1017C000119601900D929A95E1F790914704961722
:1017D00010F46FEF690F262F30E0220F331F41E026
:1017E00050E04C0F5D1F240F351FF9016081680F19
:1017F000606840E08FE394E028960FB6F894DEBF6F
:101800000FBECDBFDF91CF910C94BB0B41E00E9486
:10181000BB0B81E090E008950F931F93CF93DF936C
:101820008B0198E0899FB0011124606440E08FE350
:1018300094E00E94BB0BE801085F1F4F69918FE3A2
:1018400094E00E94060CC017D107C1F7DF91CF9139
:101850001F910F91089540E061E08FE394E00E94B2
:10186000BB0B8BE39FE10197F1F760E080E00C9404
:10187000D20B0E946701882339F060E086E00E9465
:101880001E0380E00E9466040E945901882339F0FB
:1018900080911904882319F080E00E9466040C945A
:1018A00047010E946701882339F061E086E00E94C9
:1018B0001E0380E00E9466040E945901882339F0CB
:1018C00080911904882319F080E00E9466040C942A
:1018D00047010E946701882341F160E080E00E9497
:1018E000D20B6FE471E08FE394E00E94C40161E0E9
:1018F00080E00E94D20B65E471E08FE394E00E94E7
:10190000C40162E080E00E94D20B62E371E08FE3E9
:1019100094E00E94C40163E080E00E94D20B6CE27C
:1019200071E08FE394E00E94C4010E945901882372
:1019300039F080911904882319F080E00E94660430
:101940000C944701CF92DF92EF92FF92CF93DF93F7
:1019500080912303823008F067C0F89488E193E017
:101960000E94600BC0901F03D0902003E0902103E1
:10197000F09022037894E8EEF1E08491EAE0F2E05E
:10198000D491E8E2F2E0C491CC2309F44FC0811174
:101990000E94F502EC2FF0E0EE0FFF1FE65EFD4F18
:1019A000A591B491EC91DE2391E080E009F490E000
:1019B000C92FD82F8091180484FD0FC080618093B7
:1019C000180462E082E00E944C0362E083E00E941F
:1019D0004C0362E084E00E944C032EEFC2162FEF0E
:1019E000D206E206F2064CF580911904CD2B09F5DA
:1019F00088608093190481E080930001F89484E06A
:101A0000C80ED11CE11CF11CC0921F03D092200310
:101A1000E0922103F09222037894DF91CF91FF901E
:101A2000EF90DF90CF900895F8949CCFD0E0C0E085
:101A3000C1CF846080931904E1CF23E0C216D104A2
:101A4000E104F104ACF080911904CD2B69F48061BC
:101A50008093190481E080930001F89484E0C81A0F
:101A6000D108E108F108D0CF826080931904F5CF46
:101A700080910001CD2B79F4882379F21092000136
:101A80000E94DF0360931403709315038093160381
:101A900090931703C2CF8111C0CF81E080930001E2
:101AA0000E94DF03C0901403D0901503E09016034A
:101AB000F09017036C197D098E099F0960327340FD
:101AC0008105910530F0809119048062809319049A
:101AD000A4CF0E94DF036C197D098E099F09683726
:101AE00071058105910508F498CF809119048160F2
:101AF000EDCF0E947C1BFB0101900020E9F731979C
:101B0000AF01461B570BDC01ED91FC910280F38184
:101B1000E02D09948F929F92AF92BF92EF92FF9225
:101B20000F931F93CF93DF93CDB7DEB7A1970FB677
:101B3000F894DEBF0FBECDBF7C01FA01CB0119A224
:101B4000223008F42AE08E010F5D1F4F822E912C67
:101B5000B12CA12CBF01A50194010E942B1BF901FE
:101B6000CA016A300CF5605DD8016E938D01232B9C
:101B7000242B252B79F790E080E0109721F0BD0110
:101B8000C7010E947B0DA1960FB6F894DEBF0FBE71
:101B9000CDBFDF91CF911F910F91FF90EF90BF903C
:101BA000AF909F908F900895695CDECFCF93DF93C5
:101BB0000E9467018823D9F060E080E00E94D20B88
:101BC00064E871E08FE394E00E94C40161E080E08A
:101BD0000E94D20B67E771E08FE394E00E94C4019A
:101BE0001092A90180911B04816080931B040E94C4
:101BF0005901882309F441C0809119048823E9F12F
:101C000082FF16C08B7F809319044091A901C1E027
:101C1000C40FC093A90162E083E00E94D20B4C2F55
:101C200050E070E060E02AE08FE394E00E948A0DCB
:101C30008091190480FF21C0D0E0C0E08091A9010B
:101C40008C171D06B9F0B4F061E086E00E941E0317
:101C500064EF71E080E090E00E94AD0360E086E018
:101C60000E941E0364EF71E080E090E00E94AD03EB
:101C70002196E4CF80E00E946604DF91CF910C941E
:101C800047010E9467018823F9F065E671E08FE360
:101C900094E00E94C4018AE08093A80184E690E069
:101CA000A0E0B0E08093000490930104A0930204AC
:101CB000B09303040E94DF036093A4017093A50115
:101CC0008093A6019093A7010E9459018823B9F13E
:101CD0000E94DF0360932A0470932B0480932C04EA
:101CE00090932D0448EE53E060E070E084EA91E0C8
:101CF0000E94EB038823E9F08091A8018150809332
:101D0000A80160E080E00E94D20B62E671E08FE300
:101D100094E00E94C40160E080E00E94D20B4091F8
:101D2000A80150E070E060E02AE08FE394E00E94B8
:101D30008A0D8091A801811102C00E9466040C9452
:101D400047018F929F92AF92BF92CF92DF92EF9214
:101D5000FF920F931F93CF93DF93CDB7DEB76497B6
:101D60000FB6F894DEBF0FBECDBF80911C0485FF77
:101D700062C08F7D80931C04809118048F778093BC
:101D80001804E091ED03F091EE030995F09013042F
:101D9000C090E703D090E803FF2009F47AC060E028
:101DA000C6010E942104009709F473C000E010E00E
:101DB000DC011C962C9127FF03C00F1539F00F5F33
:101DC0001F5F61E00E941704009791F7612FC60121
:101DD0000E9421048C01892B71F1E12C24E0D22E88
:101DE000DF0CF801848587FF1DC080FF54C0E285A9
:101DF000EF3F59F0F0E0EE0FFF1FE25FFE4F6591FD
:101E00007491CE0101960E9475196E2D81E00E9499
:101E1000D20BBE016F5F7F4F8FE394E00E947B0D7A
:101E2000F394E39461E0C8010E9417048C01892BAC
:101E300011F0FD14B0F280911C0486FF4AC08F7B24
:101E400080931C040E947007082FF82E843010F035
:101E500084E0F82EC090160410E01F1569F1612F80
:101E600080E00E94D20B809115046EE7181360E2A7
:101E70008FE394E00E94060C612F83E1F01698F442
:101E80000E94D20B60E08FE394E00E94060C1F5F7B
:101E9000E4CF10E09BCF81FFC3CF0680F781E02D18
:101EA0008E2D0995BDCF0E94D20B41E060E28FE3F9
:101EB00094E00E94BB0BEBCF101758F4C1101CC06C
:101EC00060E083E10E94D20B61E08FE394E00E9426
:101ED000060C64960FB6F894DEBF0FBECDBFDF913F
:101EE000CF911F910F91FF90EF90DF90CF90BF9017
:101EF000AF909F908F900895E02FE150FF0B7F01EE
:101F0000D12CEC15FD0539F46FEF610F83E10E94D0
:101F1000D20B64E0DACF612F70E090E080E00E94A5
:101F2000261A20E030E040E850E40E94B21A4B014B
:101F30005C01B701FF0C880B990B0E94261A9B01CC
:101F4000AC01C501B4010E947C194B015C01B601D2
:101F5000DD0C880B990B0E94261A9B01AC01C50170
:101F6000B4010E94B21A0E94F519862F612F0E94B7
:101F70001F1B192F682F83E10E94D20B61E0610FB4
:101F8000A4CFCF92DF92EF92FF92CF93DF9300D056
:101F9000CDB7DEB70E946701882309F494C0198287
:101FA0001A8230E020E0AE014E5F5F4FBE016F5FEE
:101FB0007F4F8BE494E00E94E80A6C01892BA9F121
:101FC00069E871E087E692E00E947B0D0D2C000C21
:101FD000EE08FF082AE0B701A601F7FE0DC06DE28A
:101FE00087E692E00E94880244275527BA014C19DF
:101FF0005D096E097F092AE087E692E00E948A0D5A
:1020000061EA71E087E692E00E947B0D68EE73E082
:1020100080E090E00E94AD030F900F90DF91CF9190
:10202000FF90EF90DF90CF90089560E080E00E94F5
:10203000D20B63EC71E08FE394E00E94C40160E096
:102040008CE00E94D20B498150E070E060E02AE011
:102050008FE394E00E948A0D61E080E00E94D20B41
:102060006AEB71E08FE394E00E94C40161E08CE0D0
:102070000E94D20B4A8150E070E060E02AE08FE3DA
:1020800094E00E948A0D62E080E00E94D20B6AEA2E
:1020900071E08FE394E00E94C40163E080E00E945D
:1020A000D20B69E971E08FE394E00E94C40184E6F9
:1020B00090E0A0E0B0E08093000490930104A0932E
:1020C0000204B09303040E945901882339F08091DF
:1020D0001904882319F080E00E9466040E944701D9
:1020E000882309F499CF0E94DA0596CFEF92FF92E8
:1020F0000F931F93CF93DF93EC018B0188E2FB01D9
:1021000011928A95E9F761E08E810E944C0360E0AC
:102110008E810E941E0364E170E080E090E00E94E6
:10212000AD0361E08E810E941E0360E08E810E94FB
:102130004C038FE590E00197F1F7E881F981008485
:10214000F185E02D26E030E04AE050E060E0CE018D
:1021500009956E317105810591056CF4982F872FD3
:10216000762F66276061CB01DF91CF911F910F9190
:10217000FF90EF900895E881F9810084F185E02DCA
:1021800026E030E04AE050E061E0CE0109957801B8
:10219000F8E2EF0EF11C623371058105910534F40C
:1021A000982F872F762F66276161DDCFE881F9812F
:1021B0000084F185E02D26E030E04AE050E060E068
:1021C000CE010995683171058105910534F4982F88
:1021D000872F762F66276261C6CFE881F981008458
:1021E000F185E02D26E030E04AE050E061E0CE01EC
:1021F00009956B3071058105910534F4982F872F6F
:10220000762F66276361AFCF21E0693271058105C2
:1022100091050CF420E0F80121938F01EE16FF06E2
:1022200029F6E881F9810084F185E02D26E030E08F
:102230004AE050E060E0CE01099568317105810502
:10224000910534F4982F872F762F662764618BCF02
:1022500070E060E088CF1F920F920FB60F921124AA
:102260002F933F934F935F936F937F938F939F939E
:10227000AF93BF93EF93FF9387E692E00E946602CD
:10228000FF91EF91BF91AF919F918F917F916F914E
:102290005F914F913F912F910F900FBE0F901F9024
:1022A00018951F920F920FB60F9211242F938F93B0
:1022B0009F93EF93FF93E0917702F09178028081F2
:1022C000E0917D02F0917E0282FD1BC090818091A1
:1022D00080028F5F8F7320918102821741F0E0911D
:1022E0008002F0E0E959FD4F958F80938002FF91C5
:1022F000EF919F918F912F910F900FBE0F901F9094
:1023000018958081F4CF1F920F920FB60F9211246F
:102310002F933F938F939F93AF93BF9380915402DA
:1023200090915502A0915602B091570230915302FC
:1023300023E0230F2D3758F50196A11DB11D2093E1
:1023400053028093540290935502A0935602B09387
:1023500057028091580290915902A0915A02B0916F
:102360005B020196A11DB11D809358029093590202
:10237000A0935A02B0935B02BF91AF919F918F914E
:102380003F912F910F900FBE0F901F90189526E848
:10239000230F0296A11DB11DD2CF1F920F920FB62F
:1023A0000F9211242F933F934F935F936F937F93DB
:1023B0008F939F93AF93BF93EF93FF938091B90057
:1023C000887F803609F44AC0F0F5883209F4A7C046
:1023D00018F5803109F49BC0B8F4882309F4F9C0DA
:1023E000883009F494C0FF91EF91BF91AF919F9114
:1023F0008F917F916F915F914F913F912F910F90AE
:102400000FBE0F901F901895883109F488C0803254
:1024100051F78093300214C0803409F49DC040F419
:102420008033B9F38833F9F68093300285ECB0C07D
:10243000803509F485C0883509F496C0883499F64A
:102440000E94EE07D0CF883909F48CC038F5883760
:1024500029F050F4883611F0803729F683E0809314
:10246000620210920C0257C0883809F47BC0803990
:1024700019F0803809F0B7CF80910C02803208F053
:1024800071C0E0910C0281E08E0F80930C0280916C
:10249000BB00F0E0E451FE4F80833DC0803B39F04B
:1024A000E0F4803A09F479C0883A09F09CCF84E0DE
:1024B000809362021092EB011092EA01E0915E02B9
:1024C000F0915F0209958091EA0181110FC081E0CE
:1024D0008093EA011092CA0109C0803C09F4A6CF9A
:1024E000883C09F4A3CF883B09F07DCFE091EB0154
:1024F00081E08E0F8093EB01F0E0E653FE4F808188
:102500008093BB009091EB018091EA0129C08091FA
:102510000D028093BB0085EC8093BC0064CF90914A
:102520002F0280912E02981758F5E0912F0281E03A
:102530008E0F80932F02F0E0E25FFD4F8081E9CFA4
:10254000E0912F0281E08E0F80932F028091BB00DB
:10255000F0E0E25FFD4F808390912F0280912E0288
:102560009817C8F285E8D8CFE0912F0281E08E0F4E
:1025700080932F028091BB00F0E0E25FFD4F8083EB
:102580008091610281115CCF81E08093600284EAD6
:102590008093BC001092620226CF85EC8093BC0031
:1025A0001092620280910C02803230F4E0910C02B1
:1025B000F0E0E451FE4F108260910C0270E0E09177
:1025C0005C02F0915D028CEE91E0099510920C0294
:1025D0000ACF1092300234CF1F920F920FB60F9293
:1025E00011242F933F934F935F936F937F938F9318
:1025F0009F93AF93BF93EF93FF93809112039091BA
:1026000013030E94600BFF91EF91BF91AF919F91D7
:102610008F917F916F915F914F913F912F910F908B
:102620000FBE0F901F9018951F920F920FB60F922A
:1026300011242F933F934F935F936F937F938F93C7
:102640009F93AF93BF93EF93FF938091100390916B
:1026500011030E94600BFF91EF91BF91AF919F9189
:102660008F917F916F915F914F913F912F910F903B
:102670000FBE0F901F9018951F93CF93DF93EC011F
:10268000198218821D821C821B821A826A871B860D
:102690001C85812F81608C874115510591F48FEB4A
:1026A00091E09F838E8380EC91E0998788870E94D8
:1026B000C001882349F011681C87DF91CF911F91D9
:1026C00008955F834E83EFCF1F771160F5CFCF93CF
:1026D000DF9310926A021092690288EE93E0A0E004
:1026E000B0E080936B0290936C02A0936D02B09364
:1026F0006E0225E331E0309368022093670225ECF7
:1027000030E0309374022093730224EC30E0309375
:1027100076022093750220EC30E03093780220930B
:10272000770221EC30E030937A022093790222EC98
:1027300030E030937C0220937B0226EC30E0309333
:102740007E0220937D0210928002109281021092EC
:102750008202109283021092070310920603809364
:10276000080390930903A0930A03B0930B0387E433
:1027700091E0909305038093040385E691E09093A4
:102780004C0480934B0480E49BE4ACE4B0E0809381
:102790004D0490934E04A0934F04B09350048FEFD8
:1027A0009FEF90935204809351048093530480933D
:1027B000540465E070E08BE494E00E94970A89E796
:1027C00091E090934C0480934B0410924204109239
:1027D000410489E591E09093400480933F0487E2AF
:1027E0008093430484E180934804C4E0C093490487
:1027F00010924A0450E040E06FEF82E394E00E94C0
:102800003C1382E394E09093E8038093E703C09342
:10281000120481EA9EE09093EC038093EB038BE239
:102820009CE09093EE038093ED0382EA9CE090930A
:10283000EA038093E9031092F0031092EF0349E654
:102840005CE060E08AED93E00E943C1341E45EE0CE
:1028500061E08DEC93E00E943C1350E040E062E0C8
:1028600080EC93E00E943C1350E040E063E083EB97
:1028700093E00E943C1341E55CE064E086EA93E06B
:102880000E943C1349E35CE065E089E993E00E9423
:102890003C1348E55BE066E08CE893E00E943C1363
:1028A00046ED5DE067E08FE793E00E943C1348E56A
:1028B0005BE068E082E793E00E943C1350E040E078
:1028C00069E085E693E00E943C134FE056E06AE041
:1028D00088E593E00E943C134FE45BE06BE08BE4FF
:1028E00093E00E943C1343E45BE06CE08EE393E0F2
:1028F0000E943C1348E55BE06DE081E393E00E94B9
:102900003C1341EC5FE06EE084E293E00E943C13F4
:1029100062E082E00E944C0362E083E00E944C038C
:10292000E6E2F2E0E491F0E0EE0FFF1FE65EFD4F1D
:10293000A591B491B0931903A0931803E8E0F2E0D5
:10294000449140931C03E7E2F2E0E491F0E0EE0FE3
:10295000FF1FE65EFD4FC591D491D0931B03C0933A
:102960001A03E9E0F2E0E491E0931D0310921F03E3
:102970001092200310922103109222032BE33FE1D7
:10298000C9010197F1F79C91842F892391E009F403
:1029900090E08881E82309F0926028E133E0909389
:1029A0001E033093110320931003809169008C7FE4
:1029B000816080936900E89A81E0809323033093DB
:1029C00013032093120380916900837F84608093B6
:1029D0006900E99A82E0809323030E94DF036093F9
:1029E0001403709315038093160390931703DF91DC
:1029F000CF910895789484B5826084BD84B5816058
:102A000084BD85B5826085BD85B5816085BD8091B9
:102A10006E00816080936E00109281008091810031
:102A20008260809381008091810081608093810029
:102A3000809180008160809380008091B1008460EB
:102A40008093B1008091B00081608093B00080914C
:102A50007A00846080937A0080917A00826080930B
:102A60007A0080917A00816080937A0080917A0068
:102A7000806880937A001092C100E0917702F09113
:102A8000780282E08083E0917302F09174021082F8
:102A9000E0917502F09176028FEC808310927F02B4
:102AA000E0917B02F0917C0286E08083E0917902E4
:102AB000F0917A02808180618083E0917902F091C7
:102AC0007A02808188608083E0917902F0917A02B5
:102AD000808180688083E0917902F0917A02808120
:102AE0008F7D808368EF71E087E692E00E94C401E9
:102AF00061EA71E087E692E00E947B0D61E086E08A
:102B00000E944C03109266021092650210926402B9
:102B1000109263021092620281E08093610210922F
:102B2000600261E082E10E941E0361E083E10E9495
:102B30001E038091B9008E7F8093B9008091B90007
:102B40008D7F8093B90088E48093B80085E48093FA
:102B5000BC0082EC91E090935F0280935E0283EC74
:102B600091E090935D0280935C0210924404809106
:102B70004904823018F098E090934404809347040D
:102B800062E370E080E090E00E94AD0360914A044F
:102B90008FE394E00E94A50868EE73E080E090E087
:102BA0000E94AD0360E38FE394E00E94A20BCBE4AC
:102BB000D6E4CE010197F1F760E38FE394E00E9441
:102BC000A20B2197F1F760E38FE394E00E94A20B40
:102BD00083E592E00197F1F760E28FE394E00E94D1
:102BE000A20B60914404606240E08FE394E00E9495
:102BF000BB0B84E08093450440E06CE08FE394E0FD
:102C00000E94BB0B40E061E08FE394E00E94BB0BAD
:102C1000CBE3DFE1CE010197F1F782E08093460438
:102C200040E066E08FE394E00E94BB0B40E062E08E
:102C30008FE394E00E94BB0B2197F1F788E080932B
:102C40004A0460E08FE394E00E94A50869E071E027
:102C500080E00E940C0C61E171E081E00E940C0CAC
:102C600069E171E082E00E940C0C61E271E083E0B6
:102C70000E940C0C69E271E084E00E940C0C6AED89
:102C800073E082E394E00E94D4076DEC73E082E38A
:102C900094E00E94D40760EC73E082E394E00E9429
:102CA000D40763EB73E080EC93E00E94D40766EAFC
:102CB00073E083EB93E00E94D40769E973E083EB50
:102CC00093E00E94D4076CE873E083EB93E00E94EA
:102CD000D4076FE773E080EC93E00E94D40762E7CB
:102CE00073E080EC93E00E94D40765E673E082E332
:102CF00094E00E94D40768E573E085E693E00E94C3
:102D0000D4076BE473E085E693E00E94D4076EE39A
:102D100073E085E693E00E94D40761E373E085E603
:102D200093E00E94D40764E273E082E394E00E949F
:102D3000D4071092180410921A04109219041092D9
:102D40001D0410921E0410921F0410922004109271
:102D50002104109222041092230410922404109251
:102D60001B0410921C041092150410921704109268
:102D70001404109216041092260410922704109244
:102D80002804109229048EE0809311040E9480018F
:102D90001092F2031092F1031092F4031092F303D5
:102DA0001092F6031092F5031092F8031092F703B5
:102DB00080911A04806880931A040E94C6048AE0F5
:102DC0000E94DF0480911C04806280931C04809127
:102DD000180482608093180481EC9FE09093F003C4
:102DE0008093EF0380E197E2A0E0B0E080932E04AF
:102DF00090932F04A0933004B093310480E0E82E28
:102E000080E0F82E0E94620680911904882309F45C
:102E100043C00E94DF0360932A0470932B048093C5
:102E20002C0490932D049091FB03809119049F3FF3
:102E300009F09EC180FF07C00E947A0780911804A4
:102E40008860809318048091190490911B0491FD6F
:102E500089C181FF03C080E00E94DF0480911904D2
:102E600082FF03C081E00E94DF0480911904887111
:102E700011F00E9415068091190485FF0DC0809104
:102E80001B048D7F80931B0480911704882321F0FD
:102E90000E9409070E94150620911D0430911E040E
:102EA00040911F04509120046091210470912204EC
:102EB0008091230490912404A0E00E946A1B51F0A9
:102EC0000E94DF0360932A0470932B0480932C04E8
:102ED00090932D0480911B0486FFB7C09091FB0353
:102EE0008D7B80931B04809118048F778093180446
:102EF0009F3FB9F080911A04982F916090931A0423
:102F000082FF0E94AB01109219040E9480018091FF
:102F10001A04887F80931A0480911B048E7F80930B
:102F20001B0410920E04E091E703F091E803828500
:102F30008F3F09F02EC1F093E803E093E70310926E
:102F40001704109215041092140410921604109293
:102F5000130460E0CF010E9421049093E803809362
:102F6000E703892B09F46BC1C0900F04D0901004C3
:102F700000910C04B0901104C091E703D091E803D4
:102F80001A85C114D10409F40DC18E819F81C81620
:102F9000D90609F00AC188819981009709F4CE0108
:102FA0009093E8038093E7031F3F09F448C160E072
:102FB0000E942104EC0100E08A85181741F00F5FA0
:102FC00061E0CE010E941704EC01892BA9F7009360
:102FD00016040093140480911B0487FD1FC160E058
:102FE000CE010E942104892B49F48C8580FF06C004
:102FF0008091FB038F3F11F40E947A070E9415060F
:1030000060E08091E7039091E8030E942104C0E012
:10301000FC01248527FF0CC12285121308C1C0932F
:103020001604209112048C2F90E0622F6150770BD0
:10303000861B970B181619060CF0F6C0C21BCF5F43
:10304000C09313048AE00E94DF048091FB038F3F4A
:10305000D9F180911A0480FDF7C090911B0492FD74
:10306000F3C04091000450910104609102047091FA
:10307000030486E294E00E94EB03E0911C048111BA
:103080001EC080911A0481FF1AC080911904811119
:1030900016C020911D0430911E0440911F045091D0
:1030A0002004609121047091220480912304909166
:1030B0002404A0E00E946A1B11F4E4FF05C0EF7E27
:1030C000E0931C040E94AB0180911C04982F907621
:1030D00009F408C186FF10C08091FE038093FF03AE
:1030E000609116048091E7039091E8030E94210407
:1030F000FC0182858093FE038091FB038F3F09F5DD
:1031000080911B0481FD05C080911904897F809303
:103110001904E091EB03F091EC0309951092190466
:1031200080911C0483FF0DC0806680931C04E09195
:10313000EB03F091EC03099580911C04877F809349
:103140001C0480911C048F7980931C04E114F10409
:1031500009F458CE0E945202882309F453CE0E94EB
:10316000000050CE867009F480CE0E9415067DCEF8
:1031700085FF92CE80911B048D7F80931B0480E09D
:103180000E946604809119048F7D8093190484CE77
:10319000FC0122852F3F09F4CECE808191810097DA
:1031A000B9F7F8CF011709F4F6CEB116A9F160E02E
:1031B000CE010E942104892B01F1809117048F5FB9
:1031C0008093170460E0CE010E9421049093E803ED
:1031D0008093E703D1CEE091E703F091E803C0814B
:1031E000D181209709F4EF01D093E803C093E7035E
:1031F0008091170481508093170461E0CE010E94F2
:103200001704009719F7E881F981309709F4FE0156
:1032100082858F3F01F7B0CE1FEFBDCE8C8587FD35
:10322000EDCE0E94DA05EACE109213040BCFCF5FE9
:1032300061E00E941704009709F0EACE06CF0E94D1
:10324000DA050E94150601CF982F916090931A0419
:1032500082FF0E94AB010E94800110920D049091A8
:103260001A0480911B04282F2E7F20931B04987F23
:1032700090931A0482FF06C08A7F80931B040E94E9
:10328000DA051CC080912504882341F00E940907BB
:1032900080912504815080932504F4CF80911704F8
:1032A00081110FC0609114048091E7039091E803AD
:1032B0000E942104FC01848587FFE1CF0E9415064E
:1032C00003CF809117048823C9F38091E70390917D
:1032D000E803009721F00E945E078111EFCF0E9462
:1032E0000907EFCF1092190431CFFB01DC010590E3
:1032F0000D920020E1F708950E9490190C94781A1D
:103300000E94711A58F00E946A1A40F029F45F3F37
:1033100029F00C94611A51110C94AC1A0C94671A90
:103320000E94891A68F39923B1F3552391F3951BF1
:10333000550BBB27AA2762177307840738F09F5FD6
:103340005F4F220F331F441FAA1FA9F335D00E2E43
:103350003AF0E0E832D091505040E695001CCAF7B0
:103360002BD0FE2F29D0660F771F881FBB1F261773
:1033700037074807AB07B0E809F0BB0B802DBF014A
:10338000FF2793585F4F3AF09E3F510578F00C9419
:10339000611A0C94AC1A5F3FE4F3983ED4F386951F
:1033A00077956795B795F7959F5FC9F7880F911D3A
:1033B0009695879597F90895E1E0660F771F881F26
:1033C000BB1F621773078407BA0720F0621B730BD9
:1033D000840BBA0BEE1F88F7E09508950E94F5194B
:1033E0006894B1110C94AC1A08950E94911A88F057
:1033F0009F5798F0B92F9927B751B0F0E1F0660FB9
:10340000771F881F991F1AF0BA95C9F714C0B130F9
:1034100091F00E94AB1AB1E008950C94AB1A672F9B
:10342000782F8827B85F39F0B93FCCF38695779528
:103430006795B395D9F73EF4909580957095619511
:103440007F4F8F4F9F4F0895E89409C097FB3EF43C
:1034500090958095709561957F4F8F4F9F4F9923E1
:10346000A9F0F92F96E9BB279395F695879577955F
:103470006795B795F111F8CFFAF4BB0F11F460FF1F
:103480001BC06F5F7F4F8F4F9F4F16C0882311F077
:1034900096E911C0772321F09EE8872F762F05C08B
:1034A000662371F096E8862F70E060E02AF09A9526
:1034B000660F771F881FDAF7880F9695879597F91B
:1034C000089597F99F6780E870E060E008959FEFA6
:1034D00080EC089500240A941616170618060906AB
:1034E000089500240A94121613061406050608957A
:1034F000092E0394000C11F4882352F0BB0F40F402
:10350000BF2B11F460FF04C06F5F7F4F8F4F9F4F41
:10351000089557FD9058440F551F59F05F3F71F0C3
:103520004795880F97FB991F61F09F3F79F087952A
:103530000895121613061406551FF2CF4695F1DFB3
:1035400008C0161617061806991FF1CF8695710543
:10355000610508940895E894BB2766277727CB0177
:1035600097F908950E94C51A0C94781A0E946A1A55
:1035700038F00E94711A20F0952311F00C94611A12
:103580000C94671A11240C94AC1A0E94891A70F3D7
:10359000959FC1F3950F50E0551F629FF001729FF8
:1035A000BB27F00DB11D639FAA27F00DB11DAA1F07
:1035B000649F6627B00DA11D661F829F2227B00D54
:1035C000A11D621F739FB00DA11D621F839FA00DDF
:1035D000611D221F749F3327A00D611D231F849F2F
:1035E000600D211D822F762F6A2F11249F57504086
:1035F0009AF0F1F088234AF0EE0FFF1FBB1F661F01
:10360000771F881F91505040A9F79E3F510580F0C9
:103610000C94611A0C94AC1A5F3FE4F3983ED4F317
:10362000869577956795B795F795E7959F5FC1F76D
:10363000FE2B880F911D9695879597F90895991BF4
:1036400079E004C0991F961708F0961B881F7A9599
:10365000C9F780950895A1E21A2EAA1BBB1BFD0194
:103660000DC0AA1FBB1FEE1FFF1FA217B307E40761
:10367000F50720F0A21BB30BE40BF50B661F771FB9
:10368000881F991F1A9469F7609570958095909599
:103690009B01AC01BD01CF01089597FD1094002E50
:1036A000083098F00850232F342F452F562F672FBE
:1036B000782F892F912DF4CF15949795879577952D
:1036C000679557954795379527950A95AAF7112439
:1036D000002D08950024A7FD00942A173005400509
:1036E000500560057005800590050895EE0FFF1FD9
:1036F0000590F491E02D099481E090E0F8940C9409
:06370000811BF894FFCFCD
:103706000100004000140054001111111111111193
:10371600111F1F11111111111111111F1F1111115B
:1037260011111111111F1F11111111111111111F59
:103736001F000000008802E8011502D50246022497
:10374600023802000000007608490809091F0842ED
:10375600082F08200800000000060CE8010909ED02
:103766000700000000E80AC90A790D790D210A113F
:103776000A790DAD0900000000E80AC90A0C09AA79
:103786000A210A110A7610AD09526561642044487F
:10379600543131206661696C65642C206572723D16
:0437A600000D0A0008
:00000001FF
