:100000000C941D010C9445010C9445010C94450180
:100010000C9445010C9445010C9445010C94450148
:100020000C9445010C9445010C9445010C94450138
:100030000C9445010C9445010C9445010C94450128
:100040000C9424120C9445010C94F2110C94CC11D4
:100050000C9445010C9445010C9445010C94450108
:100060000C946E120C94450153616C766170616E54
:1000700074616C6C617300526567726573617200C4
:1000800069722061206C61206C616D706172610029
:10009000697220616C20636F6E7461646F720069B5
:1000A000722061206C61207261697A004174616A1A
:1000B0006F73005265677265736172005061727090
:1000C0006164656F005265677265736172004170AB
:1000D00061676172204C656400456E63656E64659E
:1000E00072204C4544004C616D70617261004C455A
:1000F0004400436F6E7461646F7220313020736509
:100100006700496E666F726D6163696F6E00020110
:10011000F200EE00E600D900CE00C500BC00B3003E
:10012000AC009F0090008000770068007465636CED
:10013000610050726573696F6E65206375616C71E3
:10014000756965720045717569706F2030310041C5
:10015000706C69636163696F6E206465206D656EA4
:100160007500202000313020736567207061726156
:100170002073616C697200646520706172706164E3
:10018000656F730073656C65636369696F6E652085
:1001900063616E7469646164007061726120656E90
:1001A00074726172206D656E75006375616C717536
:1001B000696572207465636C610068756D65646162
:1001C000643A0074656D70657261747572613A00AD
:1001D00000000000240027002A0000000000250085
:1001E00028002B0000000000230026002900040442
:1001F00004040404040402020202020203030303CF
:1002000003030102040810204080010204081020AA
:100210000102040810200000000800020100000391
:10022000040700000000000000004C43444D4C3225
:100230002076322E322E3600B81311241FBECFEF97
:10024000D8E0DEBFCDBF11E0A0E0B1E0E6E1F6E32B
:1002500002C005900D92A43AB107D9F724E0A4EAB0
:10026000B1E001C01D92AC34B207E1F711E0CDE17D
:10027000D1E004C02197FE010E94FE1ACC31D107C3
:10028000C9F70E94A6140C94091B0C9400008091DD
:1002900010049091F1039F3F39F080FF08C0846003
:1002A0008093100481E008958E7F8093100480E095
:1002B0000895809110049091F1039F3F19F080956B
:1002C000817008958E7F8093100480E0089580915E
:1002D00010049091F1039F3F71F081FD0FC0826087
:1002E00080931004E091E303F091E40309951092E8
:1002F0000F0481E008958D7F8093100480E00895BD
:10030000089581E008951092F0031092EF03809118
:10031000F1038F3F11F08093F3038FEF8093F1038C
:100320001092F2034FEF5FEFBA014093F603509340
:10033000F7036093F8037093F9038093FA038093B3
:10034000FB038093FC038093FD038093FE03809363
:10035000FF03809300048093010408958091F103CA
:100360008F3F79F080910404E091EF03F091F00366
:1003700081110994809103048111FBCF8091F203D4
:10038000F8CF089508950895EF92FF920F931F9369
:10039000CF93DF938C017B01D0E0C0E0F701EC0F3D
:1003A000FD1F6491662361F0D801ED91FC910190ED
:1003B000F081E02DC8010995892B11F02196EECF2F
:1003C000CE01DF91CF911F910F91FF90EF90089593
:1003D000AF92BF92CF92DF92EF92FF920F931F9353
:1003E000CF93DF936C017B018B01040F151FEB0191
:1003F0005E01AE18BF08C017D10759F06991D60148
:10040000ED91FC910190F081E02DC6010995892BB9
:1004100079F7C501DF91CF911F910F91FF90EF9078
:10042000DF90CF90BF90AF900895FC01538D448D25
:10043000252F30E0842F90E0821B930B541710F08F
:10044000CF96089501970895FC01918D828D98179C
:1004500061F0A28DAE0FBF2FB11D5D968C91928D74
:100460009F5F9F73928F90E008958FEF9FEF0895A5
:10047000FC01918D828D981731F0828DE80FF11D6E
:10048000858D90E008958FEF9FEF0895FC01918D89
:10049000228D892F90E0805C9F4F821B91098F7382
:1004A0009927089581E792E00E94460221E0892B76
:1004B00009F420E0822F089580E090E0892B29F054
:1004C0000E94520281110C9400000895FC01A48D39
:1004D000A80FB92FB11DA35ABF4F2C91848D90E066
:1004E00001968F739927848FA689B7892C93A08949
:1004F000B1898C91837080648C93938D848D9813D3
:1005000006C00288F389E02D80818F7D8083089565
:10051000EF92FF920F931F93CF93DF93EC0181E053
:10052000888F9B8D8C8D98131AC0E889F9898081FA
:1005300085FF15C09FB7F894EE89FF896083E8892D
:10054000F98980818370806480839FBF81E090E01F
:10055000DF91CF911F910F91FF90EF900895F62EAC
:100560000B8D10E00F5F1F4F0F731127E02E8C8D46
:100570008E110CC00FB607FCFACFE889F98980818B
:1005800085FFF5CFCE010E946602F1CFEB8DEC0F17
:10059000FD2FF11DE35AFF4FF0829FB7F8940B8FA8
:1005A000EA89FB8980818062CFCFCF93DF93EC0112
:1005B000888D8823B9F0AA89BB89E889F9898C914B
:1005C00085FD03C0808186FD0DC00FB607FCF7CF07
:1005D0008C9185FFF2CF808185FFEDCFCE010E9407
:1005E0006602E9CFDF91CF910895833081F028F43E
:1005F000813099F08230A9F008958730A9F08830D1
:10060000C9F08430B1F4809180008F7D03C0809167
:1006100080008F7780938000089584B58F7784BDA4
:10062000089584B58F7DFBCF8091B0008F77809344
:10063000B00008958091B0008F7DF9CFCF93DF9304
:10064000282F30E0F901EA5EFD4F8491F901EE5F59
:10065000FD4FD491F901E251FE4FC491CC23A1F09A
:1006600081110E94F502EC2FF0E0EE0FFF1FEC511C
:10067000FE4FA591B491EC91ED2381E090E009F457
:1006800080E0DF91CF91089580E090E0FACF1F9352
:10069000CF93DF93282F30E0F901EA5EFD4F84917C
:1006A000F901EE5FFD4FD491F901E251FE4FC49183
:1006B000CC23A9F0162F81110E94F502EC2FF0E057
:1006C000EE0FFF1FE652FE4FA591B4918FB7F8943D
:1006D000EC91111108C0D095DE23DC938FBFDF9120
:1006E000CF911F910895DE2BF8CFCF93DF9390E049
:1006F000FC01EE5FFD4F249182519E4FFC018491DD
:100700008823C9F090E0880F991FFC01E053FE4F49
:10071000A591B491FC01E652FE4FC591D4916111AF
:100720000DC09FB7F8948C91209582238C9388817B
:10073000282328839FBFDF91CF910895623051F421
:100740009FB7F8943C91822F809583238C93E88106
:100750002E2BEFCF8FB7F894EC912E2B2C938FBFCD
:10076000EACF3FB7F8948091650290916602A0911C
:100770006702B091680226B5A89B05C02F3F19F00B
:100780000196A11DB11D3FBFBA2FA92F982F882711
:10079000BC01CD01620F711D811D911D42E0660FEC
:1007A000771F881F991F4A95D1F708958F929F92BE
:1007B000AF92BF92CF92DF92EF92FF924B015C011A
:1007C0000E94B1036B017C010E94B1036C197D0989
:1007D0008E099F09683E734081059105A8F321E0C9
:1007E000821A9108A108B10888EEC80E83E0D81ECD
:1007F000E11CF11C81149104A104B10429F7FF90BC
:10080000EF90DF90CF90BF90AF909F908F90089522
:100810002FB7F89460916102709162028091630237
:10082000909164022FBF0895CF92DF92EF92FF92D2
:100830000F931F93CF93DF93EC016A017B010E941A
:100840000804088119812A813B81601B710B820B8E
:10085000930B6C157D058E059F0580F00E940804A2
:10086000688379838A839B8381E0DF91CF911F9195
:100870000F91FF90EF90DF90CF90089580E0F5CF3B
:10088000662339F0FC0184819581009711F0615055
:10089000F7CF0895FC0182819381009711F00C94A9
:1008A000400490E080E00895CF939091110496FD6C
:1008B0001EC02091F1032817D1F0C82F9F779064B4
:1008C000909311042093F303909110042F3F89F02B
:1008D00080910304809304049F7790931004C09345
:1008E0000204109203041092060410920504CF91A2
:1008F0000895109204049068909310048091F4037A
:100900008093F50360910C048091DD039091DE03E8
:100910000E944A04FC0182858093F403E0CFCF93C8
:10092000DF93D82F8091100484FF0DC08F7E8093B9
:1009300010048091F3038F3F31F0909107049817D2
:1009400010F00E94540480911004C091F10383FFC1
:1009500025C0877F809310042091F5032F3FF1F08D
:10096000909107049217D0F09091110496FD16C053
:10097000906C9093110420930204C093F303806859
:10098000CF3FC1F09091030490930404809310042E
:10099000109203041092060410920504CF3F39F020
:1009A000D0931B0480911004816080931004DF9128
:1009B000CF91089510920404809310048091F40361
:1009C0008093F50360910C048091DD039091DE0328
:1009D0000E944A04FC0182858093F403D9CFCF930F
:1009E000C0910A046C2F8091DD039091DE030E9478
:1009F0004A04009731F0FC01248527FF04C0C0930E
:100A00000A04CF910895CF5F61E00E944004F1CFC6
:100A1000EF92FF920F931F93CF93DF93F82E8823CB
:100A200039F121E0821709F4B0C080910C04909153
:100A30000804292F2150330BA901282F30E0241B53
:100A4000350B121613062CF020910904222309F409
:100A50006EC0FF2009F4CAC031E0F31268C02091D3
:100A60000B042417150609F062C08F5F891BC8C0EC
:100A7000D0910C0400E010E0C0E0DD2309F480C058
:100A800060E08091DD039091DE030E944A040097AC
:100A900009F472C0E0900A0400E010E0C0E0E11246
:100AA0005DC0CC2309F46CC0D150D0930C040093EA
:100AB0000A04D0E080910E0481FF2CC0DD2351F1A7
:100AC00060E08091DD039091DE030E944A0400976C
:100AD00009F1FC01248527FF02C0CF5F012F1F5FB2
:100AE00061E00E9440040097A1F7C150C0930C043C
:100AF00000930A04209108048C2F90E0622F61502B
:100B0000770B861B970B18161906E4F5C21BCF5FEF
:100B1000C093090480910F048D7F80930F0480910E
:100B20001204806280931204DD2309F47ECF809149
:100B30000C0490910904891B80930B048091F103AC
:100B40008F3F29F480911204806480931204DF9116
:100B5000CF911F910F91FF90EF900895FC01248594
:100B600027FF02C0CF5F012F1F5F61E00E9440049A
:100B7000009709F094CF9DCF00E010E0C0E099CF3E
:100B8000D1E098CF10920904C5CFC0910A046C2F10
:100B90008091DD039091DE030E944A04009721F1C9
:100BA00061E00E9440040097F9F0CF5FFC012485CA
:100BB00027FFF6CF80910C048F5F80930C04C093C5
:100BC0000A04D0E080910E0481FF0AC0DD2341F0C9
:100BD00010920A0410920C04109209040E94EF046F
:100BE00080910F048B7F99CFD1E0ECCF80910B04E3
:100BF00081119DCF80910904882309F498CF8150F9
:100C00008093090494CF8091F1038F3F31F080915C
:100C10001104846080931104089510920F04E091F0
:100C2000DD03F091DE0382858F3FD1F4F093DE0384
:100C3000E093DD0310920D0410920B0410920A044D
:100C400010920C04109209040E94EF048AE00E94A2
:100C50000805809112048062809312040895FC01BB
:100C600022852F3F19F3808191810097C1F7F9CF39
:100C70000E94670181110C94030608958AE00E9486
:100C80000805EDEDF3E085A9806285AB0895CF936B
:100C900060E00E944A04C0E0009741F0FC01248516
:100CA00027FDCF5F61E00E944004F6CF8C2FCF91EB
:100CB00008958091DD039091DE03009711F00C946C
:100CC000470680E00895CF93DF93EC01892B31F143
:100CD0009091110496FD22C04091EF035091F003D2
:100CE000C417D507D9F09F77906490931104809131
:100CF000F1038093F303909110048F3F91F0809162
:100D00000304809304049F779093100410920204CC
:100D100010920304D0930604C0930504DF91CF9191
:100D20000895109204049068909310048091F40345
:100D30008093F50360910C048091DD039091DE03B4
:100D40000E944A04FC0182858093F403DFCFEF9276
:100D5000FF920F93CF93DF93E091DF03F091E003D5
:100D6000309709F009958091110486FD91C080FDAE
:100D70003BC08091E5039091E6030097A9F1209193
:100D8000F1032F3F19F12091EF033091F003821707
:100D9000930751F140912404509125046091260459
:100DA0007091270480E294E00E9414048823E1F00B
:100DB00080E00E948F040E94A70610920F04809189
:100DC000E5039091E6030E9463060EC0409124045F
:100DD00050912504609126047091270480E294E0EC
:100DE0000E9414048111E9CF20911304309114045E
:100DF00040911504509116046091170470911804E5
:100E00008091190490911A04A0E00E94F21A09F44A
:100E10003FC08DEDE82E83E0F82ED0E0C0E02091B9
:100E200013043091140440911504509116046091FC
:100E30001704709118048091190490911A040C2FD2
:100E40000E94D71A217030E040E050E060E070E08E
:100E500080E090E0A0E00E94F21A99F0F70182850C
:100E60009385009771F02091F1032F3F19F40E94B0
:100E7000630607C02091EF033091F00382179307B8
:100E8000B1F72196F2E0EF0EF11CC430D10539F62E
:100E9000DF91CF910F91FF90EF9008951F93CF9323
:100EA000DF938091DD039091DE03FC0112852081A8
:100EB00031812115310509F0C9019093DE0380933A
:100EC000DD0320910D04222319F0215020930D04FD
:100ED00010920A0410920C0460E00E944A040097E9
:100EE00069F1D0E0C0E0FC01248527FF21C0228504
:100EF00012131DC0C0930C04D0930A04209108045F
:100F00008C2F90E0622F6150770B861B970B181681
:100F1000190654F4C21BCF5FC09309048AE0DF9125
:100F2000CF911F910C94080510920904F7CFCF5F61
:100F3000DF5F61E00E9440040097A9F6DF91CF9146
:100F40001F910C940306FF920F931F93CF93DF938F
:100F50000091DD031091DE03F0900A046F2DC801AB
:100F60000E944A04EC0160E00E944A042C8500972C
:100F7000F1F420FF1CC08E819F819093F003809339
:100F8000EF036F2DC8010E944A04FC018285809303
:100F9000F1036F2DC8010E944A04FC0183858093F0
:100FA000F203DF91CF911F910F91FF90089521FFE0
:100FB00007C0DF91CF911F910F91FF900C943E06D7
:100FC000892B79F3209769F3CE010E944706882385
:100FD00041F3D093DE03C093DD0310920904109215
:100FE0000A0410920C040E94EF0480910D048F5F9C
:100FF00080930D0410920F04DCCFDC011296ED916A
:10100000FC911397309769F02481358121153105C2
:1010100031F475836483FB01918380830895F90122
:10102000F3CF13967C936E931297F5CF089520918A
:10103000EF01260F3327331F21323105ECF42091C5
:101040003802FC0190E080E0243069F082E00895ED
:10105000A091EF012191AC0141535E4FA40FB52F38
:10106000B11D2C930196861798F38091EF01680FBC
:101070006093EF0180E0089581E0089510923802B6
:1010800081E0809337021092120261E082E10E94B7
:10109000470361E083E10E944703E9EBF0E08081D0
:1010A0008E7F808380818D7F808388E48093B800E9
:1010B00085E48093BC000895CF93DF9391E09093F3
:1010C000CE018823B9F0C091B800D091BA008091C8
:1010D000BC008A7B8093BC0060E082E10E944703F1
:1010E00060E083E10E9447030E943E08D093BA006B
:1010F000C093B800DF91CF9108950895E0917002F8
:1011000080916F02E81730F4F0E0E255FE4F8081E5
:1011100090E008958FEF9FEF089590917002809175
:101120006F022FEF3FEF981748F4E92FF0E0E255F8
:10113000FE4F208130E09F5F90937002C9010895B7
:1011400080916F0290917002891B990B0895CF9244
:10115000DF92EF92FF920F931F93CF93DF937C0167
:10116000CB018A0120913E02222389F0EB016B0121
:10117000C40ED51ECC15DD0569F06991D701ED913E
:10118000FC910190F081E02DC7010995F3CF642F08
:101190000E941708C801DF91CF911F910F91FF9016
:1011A000EF90DF90CF900895CF93DF931F92CDB74C
:1011B000DEB7698320913E022223F9F020916D026F
:1011C000203258F021E030E0FC013383228390E0AC
:1011D00080E00F90DF91CF91089580916E02E82F0B
:1011E000F0E0E15CFD4F998190838F5F80936E0208
:1011F00080936D0281E090E0ECCF61E0CE0101963A
:101200000E941708F7CFCF92DF92EF92FF920F93D1
:101210001F93CF93DF93FC01C48121E020933E0212
:10122000C0935F0210926E0210926D028485682B4B
:101230008EE093E00E94D408D0916D02D13208F084
:1012400092C00E94B1036B017C0180913802811130
:1012500065C082E08093380281E0809337028FEF8F
:101260008093360210923502D0933402AFE3B2E09D
:10127000E4E1F2E080E0D81385C01092130280917F
:101280001302CC0FC82BC09313028091120281303D
:1012900009F07CC0109212020E94B1036B017C0124
:1012A000809113028093BB0080913A0290913B029F
:1012B000A0913C02B0913D02892B8A2B8B2B99F097
:1012C0000E94B10300913A0210913B0220913C022E
:1012D00030913D026C197D098E099F090617170789
:1012E00028073907E0F18091BC0083FDD9CF85EC58
:1012F0008093BC000E94B1036B017C018091380295
:10130000823009F445C0809136028F3F61F18091AF
:101310003602803241F18091360225C080913A0236
:1013200090913B02A0913C02B0913D02892B8A2B07
:101330008B2B09F48ACF0E94B10300913A021091DD
:101340003B0220913C0230913D026C197D098E09CF
:101350009F09061717072807390708F076CF8091ED
:1013600039020E945C0810926E0210926D02109277
:101370003E02DF91CF911F910F91FF90EF90DF9090
:10138000CF9008959D9191938F5F75CF85EEB0CFEB
:1013900080913A0290913B02A0913C02B0913D02B3
:1013A000892B8A2B8B2B09F4A9CF0E94B1030091C2
:1013B0003A0210913B0220913C0230913D026C199F
:1013C0007D098E099F09061717072807390708F0B6
:1013D00095CFC5CF90E080E008956F927F928F9275
:1013E0009F92AF92BF92CF92DF92EF92FF920F93B4
:1013F0001F93CF93DF93CDB7DEB7AC970FB6F894BA
:10140000DEBF0FBECDBFDC011696ED91FC9131968B
:1014100009F480C059013A016B018C01FE0131963B
:101420004F0188E2DF011D928A95E9F7D801ED911D
:10143000FC910484F585E02DB401C80109957C0177
:10144000892B09F051C01AA619A61CA61BA6D80103
:10145000ED91FC910684F785E02D9E01255D3F4FBF
:10146000AE01475D5F4FB401C80109957C01892B2E
:10147000D9F5A114B10439F088E2F401D501019045
:101480000D928A95E1F709A51AA5C114D10479F046
:10149000612F772767FD7A95072E000C880B990B33
:1014A0000E94AE19F6016083718382839383611475
:1014B000710489F08CA5682F782F770F770B072E92
:1014C000000C880B990B0E94AE19D3016D937D938C
:1014D0008D939C931397012B39F48BA59CA5892B95
:1014E00019F496E1E92EF12CC701AC960FB6F894E9
:1014F000DEBF0FBECDBFDF91CF911F910F91FF9047
:10150000EF90DF90CF90BF90AF909F908F907F90A3
:101510006F90089587E1E82EF12CE6CF8F929F928D
:10152000AF92BF92CF92DF92EF92FF920F931F93F1
:10153000CF93DF93EC018B016A017901E881F98196
:101540000284F385E02D0995B82EB801685F7F4FBE
:10155000E881F9810284F385E02DCE010995982E6A
:10156000B801605F7F4FE881F9810284F385E02D47
:10157000CE010995A82EB801685E7F4FE881F981F8
:101580000284F385E02DCE010995882EB801605EB6
:101590007F4FE881F9810284F385E02DCE01099522
:1015A0009B2D990D9A0D980D891319C09A2D882D90
:1015B000F601918380839B2D892DF7019183808390
:1015C00090E080E0DF91CF911F910F91FF90EF901D
:1015D000DF90CF90BF90AF909F908F90089585E15E
:1015E00090E0F0CF47E050E080E0FB012191BF01A7
:1015F000042E01C0220F0A94EAF7820F41505109CC
:10160000A0F708953F924F925F926F927F928F92D0
:101610009F92AF92BF92CF92DF92EF92FF920F9381
:101620001F93CF93DF93EC01162F7A0169010E947B
:10163000B1034B015C01312C111138843601660C69
:10164000771C660C771C85E0681A71082701440C2A
:10165000551C440C551C85E0481A510810E000E068
:1016600060E070E0CB012A813B814C815D812617CF
:101670003707480759070CF10115110599F582E064
:10168000E816F1041CF0C2010197F1F70E94B103C2
:10169000681979098A099B09E985F0E0EE0FFF1FB7
:1016A000EC51FE4FA591B4912C910F5F1F4F3885DF
:1016B0002323231105C097FFD6CF6FEF7FEFCB0118
:1016C000DF91CF911F910F91FF90EF90DF90CF901E
:1016D000BF90AF909F908F907F906F905F904F9052
:1016E0003F90089582E0C816D10484F2C301CCCFA4
:1016F000DC0117967C936E931697FB01EE5FFD4F0E
:10170000E4911896EC93189762517E4FFB01649117
:1017100019966C930895CF92DF92EF92FF920F93F8
:101720001F93CF93DF93EC017A0169010E94780B3C
:10173000E881F9810480F581E02D9801A601B701C7
:10174000CE01DF91CF911F910F91FF90EF90DF902D
:10175000CF900994CF92DF92EF92FF920F931F9355
:10176000CF93DF93EC017A0169010E94780BE88145
:10177000F9810190F081E02D9801A601B701CE0119
:10178000DF91CF911F910F91FF90EF90DF90CF905D
:101790000994CF92DF92EF92FF920F931F93CF9312
:1017A000DF93CDB7DEB728970FB6F894DEBF0FBE34
:1017B000CDBFDC011696ED91FC91319609F440C045
:1017C0008A017B0119821A821B821C821D821E8261
:1017D0001F821886DC01ED91FC910480F581E02DDB
:1017E000AE014B5F5F4FBE016F5F7F4F09956C018C
:1017F000892BB1F4E114F10441F069817A818B8184
:101800009C810E947619F70160830115110541F052
:101810006D817E818F8198850E947619D8016C93A5
:10182000C60128960FB6F894DEBF0FBECDBFDF917C
:10183000CF911F910F91FF90EF90DF90CF9008957F
:1018400087E1C82ED12CECCF0E946701882339F0A4
:1018500080910704843018F084E00C9454040895B7
:101860000E946701882321F080EB9FE00C946306BF
:1018700008950E946701882319F081E00C948F0479
:1018800008950E94041BFB0101900020E9F73197A5
:10189000AF01461B570BDC01ED91FC910280F381F7
:1018A000E02D09948F929F92AF92BF92EF92FF9298
:1018B0000F931F93CF93DF93CDB7DEB7A1970FB6EA
:1018C000F894DEBF0FBECDBF7C01FA01CB0119A297
:1018D000223008F42AE08E010F5D1F4F822E912CDA
:1018E000B12CA12CBF01A50194010E94B31AF901EA
:1018F000CA016A300CF5605DD8016E938D01232B0F
:10190000242B252B79F790E080E0109721F0BD0182
:10191000C7010E94430CA1960FB6F894DEBF0FBE1C
:10192000CDBFDF91CF911F910F91FF90EF90BF90AE
:10193000AF909F908F900895695CDECF0F931F93B7
:10194000CF938C01C62F0E9403096C2F6460C801DD
:101950000E9403096C2F6B7FC8010E94030983EC6E
:1019600090E00197F1F7CF911F910F9108950F9398
:101970001F93CF93DF938C01D62FC42F607F642BEE
:101980000E949E0C80E1D89FB00111246C2BC801ED
:10199000DF91CF911F910F910C949E0CCF93DF9309
:1019A000CDB7DEB728970FB6F894DEBF0FBECDBF18
:1019B00098E0E0E0F1E0DE01119601900D929A9539
:1019C000E1F790913D04961710F46FEF690F262F01
:1019D00030E0220F331F41E050E04C0F5D1F240F19
:1019E000351FF9016081680F606840E085E394E08D
:1019F00028960FB6F894DEBF0FBECDBFDF91CF9112
:101A00000C94B70C40E061E085E394E00E94B70CD1
:101A10008BE39FE10197F1F780913E04882321F049
:101A200060E080E00C94CE0C08950E94020D60E00E
:101A300080E00C94CE0C41E00E94B70C81E090E075
:101A400008950F931F93CF93DF938B0198E0899FA5
:101A5000B0011124606440E085E394E00E94B70C7B
:101A6000E801085F1F4F699185E394E00E941B0D18
:101A7000C017D107C1F7DF91CF911F910F91089542
:101A80008F929F92AF92BF92CF92DF92EF92FF928E
:101A90000F931F93CF93DF93CDB7DEB764970FB645
:101AA000F894DEBF0FBECDBF8091120485FF62C0E7
:101AB0008F7D8093120480910E048F7780930E04A3
:101AC000E091E303F091E4030995F0900904C090DC
:101AD000DD03D090DE03FF2009F47AC060E0C60188
:101AE0000E944A04009709F473C000E010E0DC0192
:101AF0001C962C9127FF03C00F1539F00F5F1F5F55
:101B000061E00E944004009791F7612FC6010E9496
:101B10004A048C01892B71F1E12C24E0D22EDF0CD8
:101B2000F801848587FF1DC080FF54C0E285EF3F28
:101B300059F0F0E0EE0FFF1FE25FFE4F65917491E8
:101B4000CE0101960E94FD186E2D81E00E94CE0C00
:101B5000BE016F5F7F4F85E394E00E94430CF394D6
:101B6000E39461E0C8010E9440048C01892B11F0CC
:101B7000FD14B0F28091120486FF4AC08F7B8093DF
:101B800012040E945906082FF82E843010F084E0C9
:101B9000F82EC0900C0410E01F1569F1612F80E051
:101BA0000E94CE0C80910B046EE7181360E285E36F
:101BB00094E00E941B0D612F83E1F01698F40E94BF
:101BC000CE0C60E085E394E00E941B0D1F5FE4CF24
:101BD00010E09BCF81FFC3CF0680F781E02D8E2DD3
:101BE0000995BDCF0E94CE0C41E060E285E394E010
:101BF0000E94B70CEBCF101758F4C1101CC060E066
:101C000083E10E94CE0C61E085E394E00E941B0D0D
:101C100064960FB6F894DEBF0FBECDBFDF91CF91B3
:101C20001F910F91FF90EF90DF90CF90BF90AF90FA
:101C30009F908F900895E02FE150FF0B7F01D12CF2
:101C4000EC15FD0539F46FEF610F83E10E94CE0CB6
:101C500064E0DACF612F70E090E080E00E94AE197E
:101C600020E030E040E850E40E943A1A4B015C0169
:101C7000B701FF0C880B990B0E94AE199B01AC01B8
:101C8000C501B4010E9404194B015C01B601DD0CD1
:101C9000880B990B0E94AE199B01AC01C501B401E0
:101CA0000E943A1A0E947D19862F612F0E94A71A5E
:101CB000192F682F83E10E94CE0C61E0610FA4CF41
:101CC000CF92DF92EF92FF92CF93DF9300D0CDB708
:101CD000DEB70E946701882309F494C019821A8232
:101CE00030E020E0AE014E5F5F4FBE016F5F7F4F7F
:101CF00082E494E00E94C90B6C01892BA9F168E889
:101D000071E081E792E00E94430C0D2C000CEE087C
:101D1000FF082AE0B701A601F7FE0DC06DE281E7DA
:101D200092E00E94880244275527BA014C195D09A8
:101D30006E097F092AE081E792E00E94520C60EA76
:101D400071E081E792E00E94430C68EE73E080E06E
:101D500090E00E94D6030F900F90DF91CF91FF90FB
:101D6000EF90DF90CF90089560E080E00E94CE0C6D
:101D700063EC71E085E394E00E94C40160E08CE0D4
:101D80000E94CE0C498150E070E060E02AE085E3DB
:101D900094E00E94520C61E080E00E94CE0C6AEB5D
:101DA00071E085E394E00E94C40161E08CE00E9450
:101DB000CE0C4A8150E070E060E02AE085E394E0D8
:101DC0000E94520C62E080E00E94CE0C6AEA71E050
:101DD00085E394E00E94C40163E080E00E94CE0CA1
:101DE00069E971E085E394E00E94C40184E690E033
:101DF000A0E0B0E08093F6039093F703A093F8037C
:101E0000B093F9030E945901882339F080910F049F
:101E1000882319F080E00E948F040E9447018823E4
:101E200009F499CF0E94030696CFCF93DF930E94C7
:101E300067018823D9F060E080E00E94CE0C64E85E
:101E400071E085E394E00E94C40161E080E00E94BB
:101E5000CE0C67E771E085E394E00E94C401109224
:101E6000AD01809111048160809311040E94590199
:101E7000882309F441C080910F048823E9F182FF8F
:101E800016C08B7F80930F044091AD01C1E0C40F59
:101E9000C093AD0162E083E00E94CE0C4C2F50E075
:101EA00070E060E02AE085E394E00E94520C8091AB
:101EB0000F0480FF21C0D0E0C0E08091AD018C17FD
:101EC0001D06B9F0B4F061E086E00E94470364EFBC
:101ED00071E080E090E00E94D60360E086E00E941E
:101EE000470364EF71E080E090E00E94D603219602
:101EF000E4CF80E00E948F04DF91CF910C944701E2
:101F00000E946701882339F060E086E00E94470361
:101F100080E00E948F040E945901882339F080914B
:101F20000F04882319F080E00E948F040C9447016D
:101F30000E946701882339F061E086E00E94470330
:101F400080E00E948F040E945901882339F080911B
:101F50000F04882319F080E00E948F040C9447013D
:101F60000E9467018823F9F065E671E085E394E05B
:101F70000E94C4018AE08093AC0184E690E0A0E076
:101F8000B0E08093F6039093F703A093F803B09327
:101F9000F9030E9408046093A8017093A90180933B
:101FA000AA019093AB010E9459018823B9F10E94C4
:101FB000080460932004709321048093220490937A
:101FC000230448EE53E060E070E088EA91E00E946C
:101FD00014048823E9F08091AC0181508093AC0116
:101FE00060E080E00E94CE0C62E671E085E394E060
:101FF0000E94C40160E080E00E94CE0C4091AC01E0
:1020000050E070E060E02AE085E394E00E94520C2A
:102010008091AC01811102C00E948F040C94470191
:102020000E946701882341F160E080E00E94CE0CAD
:102030006FE471E085E394E00E94C40161E080E018
:102040000E94CE0C65E471E085E394E00E94C40137
:1020500062E080E00E94CE0C62E371E085E394E0F0
:102060000E94C40163E080E00E94CE0C6CE271E04B
:1020700085E394E00E94C4010E945901882339F04D
:1020800080910F04882319F080E00E948F040C9443
:1020900047010F931F93CF9380910E0484FD1BC0C3
:1020A000806180930E0462E082E00E94750362E02A
:1020B00083E00E94750362E084E00E94750362E0A1
:1020C00085E00E94750362E08CE00E94750362E087
:1020D0008DE00E94750382E00E941E03C1E0892BFF
:1020E00009F4C0E083E00E941E03892B09F0C2605E
:1020F00084E00E941E03892B09F0C46085E00E94E1
:102100001E03892B09F0C8608CE00E941E03892BF6
:1021100009F0C0618DE00E941E03892B09F449C0BB
:10212000C0620E9408040091A4011091A5012091B1
:10213000A6013091A701601B710B820B930B683CC9
:10214000710581059105B8F10E9408046093A4010E
:102150007093A5018093A6019093A701C0FF05C0CD
:1021600080910F04816080930F04C1FF05C08091AE
:102170000F04826080930F04C2FF05C080910F049A
:10218000846080930F04C3FF05C080910F048062B8
:1021900080930F04C4FF05C080910F048860809372
:1021A0000F04C5FF08C080910F04806180930F0465
:1021B00002C0C111B6CFCF911F910F91089585ED47
:1021C0008093BC0080913A0290913B02A0913C0226
:1021D000B0913D020796A11DB11D23E0B695A795CC
:1021E000979587952A95D1F72091BC0024FD03C0CF
:1021F00010923802089540913A0250913B0260914A
:102200003C0270913D02452B462B472B69F300970A
:10221000A105B10541F025E32A95F1F700000197EA
:10222000A109B109E1CF809139020C945C08EF92C9
:10223000FF920F931F93CF93DF93EC018B0188E202
:10224000FB0111928A95E9F761E08E810E94750386
:1022500060E08E810E94470364E170E080E090E0DE
:102260000E94D60361E08E810E94470360E08E8168
:102270000E9475038FE590E00197F1F7E881F981FD
:102280000084F185E02D26E030E04AE050E060E097
:10229000CE0109956E317105810591056CF4982F79
:1022A000872F762F66276061CB01DF91CF911F9139
:1022B0000F91FF90EF900895E881F9810084F185F6
:1022C000E02D26E030E04AE050E061E0CE010995E3
:1022D0007801F8E2EF0EF11C62337105810591057A
:1022E00034F4982F872F762F66276161DDCFE88140
:1022F000F9810084F185E02D26E030E04AE050E0ED
:1023000060E0CE010995683171058105910534F4CD
:10231000982F872F762F66276261C6CFE881F981D3
:102320000084F185E02D26E030E04AE050E061E0F5
:10233000CE0109956B3071058105910534F4982F14
:10234000872F762F66276361AFCF21E06932710551
:10235000810591050CF420E0F80121938F01EE1620
:10236000FF0629F6E881F9810084F185E02D26E059
:1023700030E04AE050E060E0CE0109956831710537
:102380008105910534F4982F872F762F6627646195
:102390008BCF70E060E088CF1F920F920FB60F9244
:1023A00011242F933F934F935F936F937F938F935A
:1023B0009F93AF93BF93EF93FF9381E792E00E94C7
:1023C0006602FF91EF91BF91AF919F918F917F91A5
:1023D0006F915F914F913F912F910F900FBE0F9092
:1023E0001F9018951F920F920FB60F9211242F93E2
:1023F0008F939F93EF93FF93E0918102F09182027C
:102400008081E0918702F091880282FD1BC090815B
:1024100080918A028F5F8F7320918B02821741F027
:10242000E0918A02F0E0EF58FD4F958F80938A0289
:10243000FF91EF919F918F912F910F900FBE0F9071
:102440001F9018958081F4CF1F920F920FB60F92B4
:1024500011242F933F938F939F93AF93BF938091BA
:10246000610290916202A0916302B0916402309186
:10247000600223E0230F2D3758F50196A11DB11DF1
:10248000209360028093610290936202A0936302A2
:10249000B09364028091650290916602A0916702F8
:1024A000B09168020196A11DB11D809365029093C1
:1024B0006602A0936702B0936802BF91AF919F91AB
:1024C0008F913F912F910F900FBE0F901F901895F5
:1024D00026E8230F0296A11DB11DD2CF1F920F92A5
:1024E0000FB60F9211242F933F934F935F936F93E7
:1024F0007F938F939F93AF93BF93EF93FF938091BD
:10250000B900887F803609F44AC0F0F5883209F4B2
:10251000A7C018F5803109F49BC0B8F4882309F4EA
:10252000F9C0883009F494C0FF91EF91BF91AF9149
:102530009F918F917F916F915F914F913F912F91DB
:102540000F900FBE0F901F901895883109F488C026
:10255000803251F78093360214C0803409F49DC054
:1025600040F48033B9F38833F9F68093360285EC72
:10257000B0C0803509F485C0883509F496C0883428
:1025800099F60E94DF10D0CF883909F48CC038F555
:10259000883729F050F4883611F0803729F683E027
:1025A000809338021092110257C0883809F47BC01A
:1025B000803919F0803809F0B7CF8091110280324C
:1025C00008F071C0E091110281E08E0F809311023A
:1025D0008091BB00F0E0EF50FE4F80833DC0803B18
:1025E00039F0E0F4803A09F479C0883A09F09CCFD8
:1025F00084E0809338021092F0011092EF01E09194
:102600006B02F0916C0209958091EF0181110FC06E
:1026100081E08093EF011092CF0109C0803C09F462
:10262000A6CF883C09F4A3CF883B09F07DCFE09189
:10263000F00181E08E0F8093F001F0E0E153FE4F56
:1026400080818093BB009091F0018091EF0129C0BF
:10265000809113028093BB0085EC8093BC0064CF13
:102660009091350280913402981758F5E091350227
:1026700081E08E0F80933502F0E0EC5EFD4F8081AB
:10268000E9CFE091350281E08E0F80933502809191
:10269000BB00F0E0EC5EFD4F8083909135028091AD
:1026A00034029817C8F285E8D8CFE091350281E06E
:1026B0008E0F809335028091BB00F0E0EC5EFD4F01
:1026C00080838091370281115CCF81E08093120278
:1026D00084EA8093BC001092380226CF85EC809368
:1026E000BC001092380280911102803230F4E091E7
:1026F0001102F0E0EF50FE4F10826091110270E085
:10270000E0916902F0916A0281EF91E009951092DF
:1027100011020ACF1092360234CF1F93CF93DF936A
:10272000EC01198218821D821C821B821A826A8720
:102730001B861C85812F81608C874115510591F482
:1027400080E891E09F838E8381E891E09987888774
:102750000E948101882349F011681C87DF91CF9185
:102760001F9108955F834E83EFCF1F771160F5CFE0
:10277000CF93DF93E1E7F2E01382128288EE93E0D9
:10278000A0E0B0E084839583A683B78324E331E09F
:102790003183208325EC30E03587248724EC30E03A
:1027A0003787268720EC30E0318B208B21EC30E01E
:1027B000338B228B22EC30E0358B248B26EC30E0FF
:1027C000378B268B118E128E138E148EEEE0F3E073
:1027D0001382128284839583A683B78386E491E073
:1027E00091838083C2E4D4E084E691E09983888376
:1027F00080E49BE4ACE4B0E08A839B83AC83BD833C
:102800008FEF9FEF9F838E838887898765E070E0D5
:10281000CE010E94780B88E791E099838883E5E3F5
:10282000F4E01382128288E591E09183808311861F
:1028300087E2848384E18287C4E0C387148650E002
:1028400040E06FEF88E294E00E948D13EDEDF3E03D
:1028500088E294E091838083C3A780E49DE0958320
:10286000848385E19DE09783868389E490E1938367
:1028700082831186108640E150E160E080ED93E0B4
:102880000E948D1340EB5FE061E083EC93E00E94D7
:102890008D1350E040E062E086EB93E00E948D13E0
:1028A00050E040E063E089EA93E00E948D1348E93C
:1028B0005FE064E08CE993E00E948D1340E85FE004
:1028C00065E08FE893E00E948D1349E35CE066E0E9
:1028D00082E893E00E948D1345E15FE067E085E7C1
:1028E00093E00E948D1349E35CE068E088E693E0A2
:1028F0000E948D1350E040E069E08BE593E00E9478
:102900008D1348E356E06AE08EE493E00E948D1355
:1029100040E35CE06BE081E493E00E948D1344E2CD
:102920005CE06CE084E393E00E948D1349E35CE09B
:102930006DE087E293E00E948D1340E65EE06EE07A
:102940008AE193E0DF91CF910C948D13789484B554
:10295000826084BD84B5816084BD85B5826085BD9B
:1029600085B5816085BD80916E00816080936E0029
:10297000109281008091810082608093810080911B
:1029800081008160809381008091800081608093CC
:1029900080008091B10084608093B1008091B0008C
:1029A00081608093B00080917A00846080937A0087
:1029B00080917A00826080937A0080917A008160B1
:1029C00080937A0080917A00806880937A001092D8
:1029D000C100E0918102F091820282E08083E09167
:1029E0007D02F0917E021082E0917F02F0918002E0
:1029F0008FEC808310928902E0918502F09186022B
:102A000086E08083E0918302F0918402808180617E
:102A10008083E0918302F0918402808188608083CA
:102A2000E0918302F0918402808180688083E0914C
:102A30008302F091840280818F7D80836AE272E05C
:102A400081E792E00E94C40160EA71E081E792E0D0
:102A50000E94430C61E086E00E94750310927002B0
:102A600010926F0210926E0210926D020E943E0848
:102A700082EC91E090936C0280936B0283EC91E086
:102A800090936A028093690210923A048091400404
:102A9000823018F098E090933A0480933D0462E30A
:102AA00070E080E090E00E94D6036091410485E3ED
:102AB00094E00E94030968EE73E080E090E00E94D9
:102AC000D60360E385E394E00E949E0CCBE4D6E459
:102AD000CE010197F1F760E385E394E00E949E0C3C
:102AE0002197F1F760E385E394E00E949E0C83E573
:102AF00092E00197F1F760E285E394E00E949E0C7A
:102B000060913A04606240E085E394E00E94B70C73
:102B100084E080933B0440E06CE085E394E00E9415
:102B2000B70C0E94020D82E080933C0440E066E016
:102B300085E394E00E94B70C40E062E085E394E016
:102B40000E94B70C8BE39FE10197F1F788E0809337
:102B5000410460E085E394E00E94030968E071E0CD
:102B600080E00E94210D60E171E081E00E94210D72
:102B700068E171E082E00E94210D60E271E083E093
:102B80000E94210D68E271E084E00E94210D60ED59
:102B900073E088E294E00E94FD0763EC73E088E252
:102BA00094E00E94FD0766EB73E088E294E00E94E7
:102BB000FD0769EA73E086EB93E00E94FD076CE98C
:102BC00073E089EA93E00E94FD076FE873E089EA09
:102BD00093E00E94FD0762E873E089EA93E00E94B7
:102BE000FD0765E773E086EB93E00E94FD0768E66A
:102BF00073E086EB93E00E94FD076BE573E088E2EB
:102C000094E00E94FD076EE473E08BE593E00E9480
:102C1000FD0761E473E08BE593E00E94FD0764E348
:102C200073E08BE593E00E94FD0767E273E08BE5BC
:102C300093E00E94FD076AE173E088E294E00E945D
:102C4000FD0710920E041092100410920F041092BF
:102C5000130410921404109215041092160410928A
:102C60001704109218041092190410921A0410926A
:102C700011041092120410920B0410920D04109281
:102C80000A0410920C0410921C0410921D0410925D
:102C90001E0410921F048EE0809307040E9483019B
:102CA0001092E8031092E7031092EA031092E903EE
:102CB0001092EC031092EB031092EE031092ED03CE
:102CC000809110048068809310040E94EF048AE0D1
:102CD0000E94080580911204806280931204809102
:102CE0000E04826080930E0480E69EE09093E603DB
:102CF0008093E50380E197E2A0E0B0E080932404B4
:102D000090932504A0932604B093270480E0E82E36
:102D100080E0F82E0E94A70680910F04882309F412
:102D200043C00E94080460932004709321048093A0
:102D30002204909323049091F10380910F049F3F0C
:102D400009F09EC180FF07C00E94A30780910E0476
:102D5000886080930E0480910F049091110491FD7E
:102D600089C181FF03C080E00E94080580910F04A3
:102D700082FF03C081E00E94080580910F048871E2
:102D800011F00E943E0680910F0485FF0DC08091D6
:102D900011048D7F8093110480910D04882321F00C
:102DA0000E944E070E943E062091130430911404A5
:102DB0004091150450911604609117047091180405
:102DC0008091190490911A04A0E00E94F21A51F027
:102DD0000E940804609320047093210480932204CD
:102DE000909323048091110486FFB7C09091F10362
:102DF0008D7B8093110480910E048F7780930E0455
:102E00009F3FB9F080911004982F91609093100427
:102E100082FF0E94AE0110920F040E9483018091F4
:102E20001004887F80931004809111048E7F80931A
:102E3000110410920404E091DD03F091DE03828519
:102E40008F3F09F02EC1F093DE03E093DD03109273
:102E50000D0410920B0410920A0410920C041092AC
:102E6000090460E0CF010E944A049093DE0380933E
:102E7000DD03892B09F46BC1C0900504D0900604D2
:102E800000910204B0900704C091DD03D091DE03ED
:102E90001A85C114D10409F40DC18E819F81C81611
:102EA000D90609F00AC188819981009709F4CE01F9
:102EB0009093DE038093DD031F3F09F448C160E077
:102EC0000E944A04EC0100E08A85181741F00F5F68
:102ED00061E0CE010E944004EC01892BA9F7009328
:102EE0000C0400930A048091110487FD1FC160E067
:102EF000CE010E944A04892B49F48C8580FF06C0CC
:102F00008091F1038F3F11F40E94A3070E943E06B7
:102F100060E08091DD039091DE030E944A04C0E0EE
:102F2000FC01248527FF0CC12285121308C1C09320
:102F30000C04209108048C2F90E0622F6150770BD5
:102F4000861B970B181619060CF0F6C0C21BCF5F34
:102F5000C09309048AE00E9408058091F1038F3F25
:102F6000D9F18091100480FDF7C09091110492FD79
:102F7000F3C04091F6035091F7036091F80370910C
:102F8000F9038CE194E00E941404E0911204811191
:102F90001EC08091100481FF1AC080910F0481111E
:102FA00016C02091130430911404409115045091DF
:102FB000160460911704709118048091190490917F
:102FC0001A04A0E00E94F21A11F4E4FF05C0EF7E9B
:102FD000E09312040E94AE0180911204982F907623
:102FE00009F408C186FF10C08091F4038093F503B3
:102FF00060910C048091DD039091DE030E944A04ED
:10300000FC0182858093F4038091F1038F3F09F5E1
:103010008091110481FD05C080910F04897F809308
:103020000F04E091E103F091E203099510920F047F
:103030008091120483FF0DC0806680931204E0919A
:10304000E103F091E203099580911204877F809358
:103050001204809112048F7980931204E114F10418
:1030600009F458CE0E945202882309F453CE0E94DC
:10307000000050CE867009F480CE0E943E067DCEC0
:1030800085FF92CE809111048D7F8093110480E0A2
:103090000E948F0480910F048F7D80930F0484CE53
:1030A000FC0122852F3F09F4CECE808191810097CB
:1030B000B9F7F8CF011709F4F6CEB116A9F160E01F
:1030C000CE010E944A04892B01F180910D048F5F8B
:1030D00080930D0460E0CE010E944A049093DE03C9
:1030E0008093DD03D1CEE091DD03F091DE03C0815A
:1030F000D181209709F4EF01D093DE03C093DD0363
:1031000080910D04815080930D0461E0CE010E94F6
:103110004004009719F7E881F981309709F4FE011E
:1031200082858F3F01F7B0CE1FEFBDCE8C8587FD26
:10313000EDCE0E940306EACE109209040BCFCF5FBA
:1031400061E00E944004009709F0EACE06CF0E9499
:1031500003060E943E0601CF982F916090931004C1
:1031600082FF0E94AE010E9483011092030490919D
:10317000100480911104282F2E7F20931104987F32
:103180009093100482FF06C08A7F809311040E94EE
:1031900003061CC080911B04882341F00E944E0747
:1031A00080911B04815080931B04F4CF80910D0407
:1031B00081110FC060910A048091DD039091DE03BC
:1031C0000E944A04FC01848587FFE1CF0E943E06ED
:1031D00003CF80910D048823C9F38091DD03909182
:1031E000DE03009721F00E9447068111EFCF0E9475
:1031F0004E07EFCF10920F0431CFFB01DC01059099
:103200000D920020E1F708950E9418190C94001AFD
:103210000E94F91958F00E94F21940F029F45F3F1A
:1032200029F00C94E91951110C94341A0C94EF19EB
:103230000E94111A68F39923B1F3552391F3951B5A
:10324000550BBB27AA2762177307840738F09F5FC7
:103250005F4F220F331F441FAA1FA9F335D00E2E34
:103260003AF0E0E832D091505040E695001CCAF7A1
:103270002BD0FE2F29D0660F771F881FBB1F261764
:1032800037074807AB07B0E809F0BB0B802DBF013B
:10329000FF2793585F4F3AF09E3F510578F00C940A
:1032A000E9190C94341A5F3FE4F3983ED4F3869501
:1032B00077956795B795F7959F5FC9F7880F911D2B
:1032C0009695879597F90895E1E0660F771F881F17
:1032D000BB1F621773078407BA0720F0621B730BCA
:1032E000840BBA0BEE1F88F7E09508950E947D19B4
:1032F0006894B1110C94341A08950E94191A88F038
:103300009F5798F0B92F9927B751B0F0E1F0660FA9
:10331000771F881F991F1AF0BA95C9F714C0B130EA
:1033200091F00E94331AB1E008950C94331A672F7C
:10333000782F8827B85F39F0B93FCCF38695779519
:103340006795B395D9F73EF4909580957095619502
:103350007F4F8F4F9F4F0895E89409C097FB3EF42D
:1033600090958095709561957F4F8F4F9F4F9923D2
:10337000A9F0F92F96E9BB279395F6958795779550
:103380006795B795F111F8CFFAF4BB0F11F460FF10
:103390001BC06F5F7F4F8F4F9F4F16C0882311F068
:1033A00096E911C0772321F09EE8872F762F05C07C
:1033B000662371F096E8862F70E060E02AF09A9517
:1033C000660F771F881FDAF7880F9695879597F90C
:1033D000089597F99F6780E870E060E008959FEF97
:1033E00080EC089500240A9416161706180609069C
:1033F000089500240A94121613061406050608956B
:10340000092E0394000C11F4882352F0BB0F40F4F2
:10341000BF2B11F460FF04C06F5F7F4F8F4F9F4F32
:10342000089557FD9058440F551F59F05F3F71F0B4
:103430004795880F97FB991F61F09F3F79F087951B
:103440000895121613061406551FF2CF4695F1DFA4
:1034500008C0161617061806991FF1CF8695710534
:10346000610508940895E894BB2766277727CB0168
:1034700097F908950E944D1A0C94001A0E94F219AF
:1034800038F00E94F91920F0952311F00C94E919F5
:103490000C94EF1911240C94341A0E94111A70F331
:1034A000959FC1F3950F50E0551F629FF001729FE9
:1034B000BB27F00DB11D639FAA27F00DB11DAA1FF8
:1034C000649F6627B00DA11D661F829F2227B00D45
:1034D000A11D621F739FB00DA11D621F839FA00DD0
:1034E000611D221F749F3327A00D611D231F849F20
:1034F000600D211D822F762F6A2F11249F57504077
:103500009AF0F1F088234AF0EE0FFF1FBB1F661FF1
:10351000771F881F91505040A9F79E3F510580F0BA
:103520000C94E9190C94341A5F3FE4F3983ED4F3F9
:10353000869577956795B795F795E7959F5FC1F75E
:10354000FE2B880F911D9695879597F90895991BE5
:1035500079E004C0991F961708F0961B881F7A958A
:10356000C9F780950895A1E21A2EAA1BBB1BFD0185
:103570000DC0AA1FBB1FEE1FFF1FA217B307E40752
:10358000F50720F0A21BB30BE40BF50B661F771FAA
:10359000881F991F1A9469F760957095809590958A
:1035A0009B01AC01BD01CF01089597FD1094002E41
:1035B000083098F00850232F342F452F562F672FAF
:1035C000782F892F912DF4CF15949795879577951E
:1035D000679557954795379527950A95AAF711242A
:1035E000002D08950024A7FD00942A1730054005FA
:1035F000500560057005800590050895EE0FFF1FCA
:103600000590F491E02D099481E090E0F8940C94F9
:06361000091BF894FFCF36
:103616000000400014005400111111111111111174
:103626001F1F11111111111111111F1F111111114C
:10363600111111111F1F11111111111111111F1F3C
:10364600000000008802E8011502D50246022402A5
:10365600380200000000D408A708EA097D08A0087F
:103666008D087E08000000001B0DE801EA09160817
:1036760000000000C90BAA0B410C410C020BF20A18
:10368600410C8E0A00000000C90BAA0BED098B0B3A
:10369600020BF20A17118E0A5265616420444854DF
:1036A6003131206661696C65642C206572723D005B
:0436B6000D0A0000F9
:00000001FF
