:100000000C9435000C945D000C945D000C945D0024
:100010000C945D000C945D000C945D000C945D00EC
:100020000C945D000C945D000C945D000C945D00DC
:100030000C945D000C945D000C945D000C945D00CC
:100040000C9485010C945D000C94F5010C94CF0187
:100050000C945D000C945D000C945D000C945D00AC
:100060000C945D000C945D00AB0211241FBECFEF19
:10007000D8E0DEBFCDBF11E0A0E0B1E0E0ECF5E0FC
:1000800002C005900D92AE31B107D9F721E0AEE183
:10009000B1E001C01D92A53CB207E1F710E0C5E355
:1000A000D0E004C02197FE010E94D802C433D107DA
:1000B000C9F70E9427020C94DE020C940000AF9254
:1000C000BF92CF92DF92EF92FF920F931F93CF9345
:1000D000DF936C017B018B01040F151FEB015E01A7
:1000E000AE18BF08C017D10759F06991D601ED913C
:1000F000FC910190F081E02DC6010995892B79F7DB
:10010000C501DF91CF911F910F91FF90EF90DF908C
:10011000CF90BF90AF900895FC01538D448D252F53
:1001200030E0842F90E0821B930B541710F0CF9691
:10013000089501970895FC01918D828D981761F0C3
:10014000A28DAE0FBF2FB11D5D968C91928D9F5FDA
:100150009F73928F90E008958FEF9FEF0895FC01B9
:10016000918D828D981731F0828DE80FF11D858D6C
:1001700090E008958FEF9FEF0895FC01918D228DFF
:10018000892F90E0805C9F4F821B91098F73992784
:10019000089588E291E00E94BD0021E0892B09F4D6
:1001A00020E0822F0895FC01A48DA80FB92FB11D66
:1001B000A35ABF4F2C91848D90E001968F7399279D
:1001C000848FA689B7892C93A089B1898C9183707B
:1001D00080648C93938D848D981306C00288F38974
:1001E000E02D80818F7D80830895EF92FF920F93A1
:1001F0001F93CF93DF93EC0181E0888F9B8D8C8DD3
:1002000098131AC0E889F989808185FF15C09FB7C6
:10021000F894EE89FF896083E889F9898081837089
:10022000806480839FBF81E090E0DF91CF911F9138
:100230000F91FF90EF900895F62E0B8D10E00F5F59
:100240001F4F0F731127E02E8C8D8E110CC00FB62F
:1002500007FCFACFE889F989808185FFF5CFCE01C7
:100260000E94D300F1CFEB8DEC0FFD2FF11DE35A6F
:10027000FF4FF0829FB7F8940B8FEA89FB8980814A
:100280008062CFCFCF93DF93EC01888D8823B9F0C4
:10029000AA89BB89E889F9898C9185FD03C0808191
:1002A00086FD0DC00FB607FCF7CF8C9185FFF2CF0E
:1002B000808185FFEDCFCE010E94D300E9CFDF9191
:1002C000CF91089542E050E062E171E088E291E070
:1002D0000C945F0047E050E065E171E088E291E056
:1002E0000E945F000E94620188E291E00E949B00F0
:1002F000682F88E291E00E94F5000C9462010E9450
:10030000C90081110C946A0108951F920F920FB6D3
:100310000F9211242F933F938F939F93AF93BF938B
:100320008091240190912501A0912601B09127018F
:100330003091230123E0230F2D3758F50196A11D9D
:10034000B11D209323018093240190932501A09354
:100350002601B093270180911F0190912001A09167
:100360002101B09122010196A11DB11D80931F01B1
:1003700090932001A0932101B0932201BF91AF91EE
:100380009F918F913F912F910F900FBE0F901F90D3
:10039000189526E8230F0296A11DB11DD2CF1F92FA
:1003A0000F920FB60F9211242F933F934F935F93A9
:1003B0006F937F938F939F93AF93BF93EF93FF932D
:1003C00088E291E00E94D300FF91EF91BF91AF913D
:1003D0009F918F917F916F915F914F913F912F915D
:1003E0000F900FBE0F901F9018951F920F920FB68F
:1003F0000F9211242F938F939F93EF93FF93E0918C
:100400003801F09139018081E0913E01F0913F0186
:1004100082FD1BC09081809141018F5F8F7320917D
:100420004201821741F0E0914101F0E0E85DFE4FAA
:10043000958F80934101FF91EF919F918F912F9123
:100440000F900FBE0F901F9018958081F4CF789475
:1004500084B5826084BD84B5816084BD85B58260C9
:1004600085BD85B5816085BD80916E00816080937A
:100470006E001092810080918100826080938100E3
:1004800080918100816080938100809180008160F3
:10049000809380008091B10084608093B10080914E
:1004A000B00081608093B00080917A008460809376
:1004B0007A0080917A00826080937A0080917A003D
:1004C000816080937A0080917A00806880937A00BE
:1004D0001092C100E0913801F091390182E08083EF
:1004E000E0913801F09139011082E0913401F091EE
:1004F00035011082E0913601F091370180E180836F
:1005000010924001E0913C01F0913D0186E0808332
:10051000E0913A01F0913B01808180618083E0911C
:100520003A01F0913B01808188608083E0913A013B
:10053000F0913B01808180688083E0913A01F091E5
:100540003B0180818F7D80830E94C9008823E1F375
:100550000E946A01F9CFE8E2F1E01382128288EE8C
:1005600093E0A0E0B0E084839583A683B78384E022
:1005700091E09183808385EC90E09587848784EC7B
:1005800090E09787868780EC90E0918B808B81EC60
:1005900090E0938B828B82EC90E0958B848B86EC41
:1005A00090E0978B868B118E128E138E148E089589
:1005B000EE0FFF1F0590F491E02D0994F894FFCF02
:1005C00000000000F5005F008C004201BD009B00B0
:0E05D000AF000D0A005265636962693A0000CF
:00000001FF
