:020000040000FA
:100000000C9435000C9446020C941F020C945D0075
:100010000C945D000C945D000C945D000C945D00EC
:100020000C945D000C945D000C945D000C945D00DC
:100030000C945D000C945D000C945D000C945D00CC
:100040000C947D010C945D000C94ED010C94C7019F
:100050000C945D000C945D000C945D000C945D00AC
:100060000C945D000C945D00020311241FBECFEFC1
:10007000D8E0DEBFCDBF11E0A0E0B1E0EEE6F6E0F3
:1000800002C005900D92A033B107D9F721E0A0E39B
:10009000B1E001C01D92A63DB207E1F710E0C5E353
:1000A000D0E004C02197FE010E942F03C433D10782
:1000B000C9F70E946D020C9435030C940000AF92B6
:1000C000BF92CF92DF92EF92FF920F931F93CF9345
:1000D000DF936C017B018B01040F151FEB015E01A7
:1000E000AE18BF08C017D10759F06991D601ED913C
:1000F000FC910190F081E02DC6010995892B79F7DB
:10010000C501DF91CF911F910F91FF90EF90DF908C
:10011000CF90BF90AF900895FC01538D448D252F53
:1001200030E0842F90E0821B930B541710F0CF9691
:10013000089501970895FC01918D828D981761F0C3
:10014000A28DAE0FBF2FB11D5D968C91928D9F5FDA
:100150009F73928F90E008958FEF9FEF0895FC01B9
:10016000918D828D981731F0828DE80FF11D858D6C
:1001700090E008958FEF9FEF0895FC01918D228DFF
:10018000892F90E0805C9F4F821B91098F73992784
:10019000089580E391E00E94BD0021E0892B09F4DD
:1001A00020E0822F089580E090E0892B29F00E94C2
:1001B000C90081110C9400000895FC01A48DA80FC2
:1001C000B92FB11DA35ABF4F2C91848D90E0019699
:1001D0008F739927848FA689B7892C93A089B189B9
:1001E0008C91837080648C93938D848D981306C05A
:1001F0000288F389E02D80818F7D80830895EF92BE
:10020000FF920F931F93CF93DF93EC0181E0888FD0
:100210009B8D8C8D98131AC0E889F989808185FFA0
:1002200015C09FB7F894EE89FF896083E889F98942
:1002300080818370806480839FBF81E090E0DF9144
:10024000CF911F910F91FF90EF900895F62E0B8D97
:1002500010E00F5F1F4F0F731127E02E8C8D8E1152
:100260000CC00FB607FCFACFE889F989808185FFB9
:10027000F5CFCE010E94DD00F1CFEB8DEC0FFD2F0D
:10028000F11DE35AFF4FF0829FB7F8940B8FEA8974
:10029000FB8980818062CFCFCF93DF93EC01888D83
:1002A0008823B9F0AA89BB89E889F9898C9185FDF1
:1002B00003C0808186FD0DC00FB607FCF7CF8C917F
:1002C00085FFF2CF808185FFEDCFCE010E94DD005A
:1002D000E9CFDF91CF910895089546E150E066E1BE
:1002E00071E080E391E00E945F0042E050E06DE247
:1002F00071E080E391E00C945F001F920F920FB6C3
:100300000F9211242F933F938F939F93AF93BF939B
:100310008091D2019091D301A091D401B091D501E7
:100320003091D10123E0230F2D3758F50196A11DFF
:10033000B11D2093D1018093D2019093D301A0935A
:10034000D401B093D5018091CD019091CE01A091BF
:10035000CF01B091D0010196A11DB11D8093CD01B7
:100360009093CE01A093CF01B093D001BF91AF91F4
:100370009F918F913F912F910F900FBE0F901F90E3
:10038000189526E8230F0296A11DB11DD2CF1F920A
:100390000F920FB60F9211242F933F934F935F93B9
:1003A0006F937F938F939F93AF93BF93EF93FF933D
:1003B00080E391E00E94DD00FF91EF91BF91AF914A
:1003C0009F918F917F916F915F914F913F912F916D
:1003D0000F900FBE0F901F9018951F920F920FB69F
:1003E0000F9211242F938F939F93EF93FF93E0919C
:1003F0004001F09141018081E0914601F091470177
:1004000082FD1BC09081809149018F5F8F73209185
:100410004A01821741F0E0914901F0E0E05DFE4FB2
:10042000958F80934901FF91EF919F918F912F912B
:100430000F900FBE0F901F9018958081F4CF1F92E0
:100440000F920FB60F9211242F933F934F935F9308
:100450006F937F938F939F93AF93BF93EF93FF938C
:10046000E0910201F09103010995FF91EF91BF9195
:10047000AF919F918F917F916F915F914F913F913C
:100480002F910F900FBE0F901F9018951F920F92F3
:100490000FB60F9211242F933F934F935F936F9357
:1004A0007F938F939F93AF93BF93EF93FF93E091CD
:1004B0000001F09101010995FF91EF91BF91AF917A
:1004C0009F918F917F916F915F914F913F912F916C
:1004D0000F900FBE0F901F901895789484B582608E
:1004E00084BD84B5816084BD85B5826085BD85B5D8
:1004F000816085BD80916E00816080936E00109256
:1005000081008091810082608093810080918100D0
:100510008160809381008091800081608093800061
:100520008091B10084608093B1008091B0008160BF
:100530008093B00080917A00846080937A008091EB
:100540007A00826080937A0080917A008160809343
:100550007A0080917A00806880937A001092C100BE
:10056000E0914001F091410182E08083E0914001FF
:10057000F09141011082E0913C01F0913D01108227
:10058000E0913E01F0913F0180E1808310924801AB
:10059000E0914401F091450186E08083E0914201C1
:1005A000F0914301808180618083E0914201F0916C
:1005B0004301808188608083E0914201F091430192
:1005C000808180688083E0914201F09143018081C5
:1005D0008F7D80838DE691E09093010180930001EF
:1005E000809169008C7F816080936900E89AC0E007
:1005F000D0E02097F1F30E94C9008823D1F30E9434
:100600000000F7CFE0E3F1E01382128288EE93E07E
:10061000A0E0B0E084839583A683B78388E091E06F
:100620009183808385EC90E09587848784EC90E0CB
:100630009787868780EC90E0918B808B81EC90E0AF
:10064000938B828B82EC90E0958B848B86EC90E090
:10065000978B868B118E128E138E148E0895EE0F4B
:10066000FF1F0590F491E02D0994F894FFCF6C01E1
:100670006C0100000000FF005F008C004C01BD0019
:100680009B00AF00696E74657272757063696F6EFE
:0E06900020646574656374616461000D0A0086
:107E0000112484B714BE81FFF0D085E080938100F7
:107E100082E08093C00088E18093C10086E0809377
:107E2000C20080E18093C4008EE0C9D0259A86E02C
:107E300020E33CEF91E0309385002093840096BBD3
:107E4000B09BFECF1D9AA8958150A9F7CC24DD24C4
:107E500088248394B5E0AB2EA1E19A2EF3E0BF2EE7
:107E6000A2D0813461F49FD0082FAFD0023811F036
:107E7000013811F484E001C083E08DD089C08234E0
:107E800011F484E103C0853419F485E0A6D080C0E4
:107E9000853579F488D0E82EFF2485D0082F10E0AE
:107EA000102F00270E291F29000F111F8ED06801E7
:107EB0006FC0863521F484E090D080E0DECF843638
:107EC00009F040C070D06FD0082F6DD080E0C81688
:107ED00080E7D80618F4F601B7BEE895C0E0D1E017
:107EE00062D089930C17E1F7F0E0CF16F0E7DF06D8
:107EF00018F0F601B7BEE89568D007B600FCFDCFD4
:107F0000A601A0E0B1E02C9130E011968C91119780
:107F100090E0982F8827822B932B1296FA010C0160
:107F200087BEE89511244E5F5F4FF1E0A038BF0790
:107F300051F7F601A7BEE89507B600FCFDCF97BE46
:107F4000E89526C08437B1F42ED02DD0F82E2BD052
:107F50003CD0F601EF2C8F010F5F1F4F84911BD097
:107F6000EA94F801C1F70894C11CD11CFA94CF0C13
:107F7000D11C0EC0853739F428D08EE10CD085E9AC
:107F80000AD08FE07ACF813511F488E018D01DD067
:107F900080E101D065CF982F8091C00085FFFCCF94
:107FA0009093C60008958091C00087FFFCCF809118
:107FB000C00084FD01C0A8958091C6000895E0E648
:107FC000F0E098E1908380830895EDDF803219F02E
:107FD00088E0F5DFFFCF84E1DECF1F93182FE3DFCA
:107FE0001150E9F7F2DF1F91089580E0E8DFEE27F6
:047FF000FF270994CA
:027FFE00040479
:00000001FF
